{
  "contractName": "ChildContent",
  "abi": [
    {
      "inputs": [
        {
          "internalType": "address",
          "name": "senderAddress",
          "type": "address"
        },
        {
          "internalType": "address",
          "name": "parentArtist",
          "type": "address"
        },
        {
          "internalType": "bytes32",
          "name": "IPFShash",
          "type": "bytes32"
        },
        {
          "internalType": "address",
          "name": "parentContract",
          "type": "address"
        },
        {
          "internalType": "uint256",
          "name": "timestamp",
          "type": "uint256"
        }
      ],
      "stateMutability": "nonpayable",
      "type": "constructor"
    },
    {
      "anonymous": false,
      "inputs": [
        {
          "indexed": false,
          "internalType": "string",
          "name": "info",
          "type": "string"
        },
        {
          "indexed": false,
          "internalType": "bytes32",
          "name": "IPFShash",
          "type": "bytes32"
        }
      ],
      "name": "CangedIPFSHash",
      "type": "event"
    },
    {
      "inputs": [
        {
          "internalType": "bytes32",
          "name": "IPFSHash",
          "type": "bytes32"
        }
      ],
      "name": "setIPFSHash",
      "outputs": [],
      "stateMutability": "nonpayable",
      "type": "function"
    }
  ],
  "bytecode": "0x608060405234801561001057600080fd5b506040516105373803806105378339818101604052810190610032919061028e565b846000806101000a81548173ffffffffffffffffffffffffffffffffffffffff021916908373ffffffffffffffffffffffffffffffffffffffff16021790555084600160000160006101000a81548173ffffffffffffffffffffffffffffffffffffffff021916908373ffffffffffffffffffffffffffffffffffffffff16021790555082600180018190555030600160020160006101000a81548173ffffffffffffffffffffffffffffffffffffffff021916908373ffffffffffffffffffffffffffffffffffffffff1602179055504260016003018190555083600160040160000160006101000a81548173ffffffffffffffffffffffffffffffffffffffff021916908373ffffffffffffffffffffffffffffffffffffffff1602179055508260016004016001018190555081600160040160020160006101000a81548173ffffffffffffffffffffffffffffffffffffffff021916908373ffffffffffffffffffffffffffffffffffffffff160217905550806001600401600301819055505050505050610309565b600080fd5b600073ffffffffffffffffffffffffffffffffffffffff82169050919050565b60006101ef826101c4565b9050919050565b6101ff816101e4565b811461020a57600080fd5b50565b60008151905061021c816101f6565b92915050565b6000819050919050565b61023581610222565b811461024057600080fd5b50565b6000815190506102528161022c565b92915050565b6000819050919050565b61026b81610258565b811461027657600080fd5b50565b60008151905061028881610262565b92915050565b600080600080600060a086880312156102aa576102a96101bf565b5b60006102b88882890161020d565b95505060206102c98882890161020d565b94505060406102da88828901610243565b93505060606102eb8882890161020d565b92505060806102fc88828901610279565b9150509295509295909350565b61021f806103186000396000f3fe608060405234801561001057600080fd5b506004361061002b5760003560e01c806362875b6d14610030575b600080fd5b61004a60048036038101906100459190610122565b61004c565b005b60008054906101000a900473ffffffffffffffffffffffffffffffffffffffff1673ffffffffffffffffffffffffffffffffffffffff163373ffffffffffffffffffffffffffffffffffffffff16146100a457600080fd5b8060018001819055507f5cceeacd6ab6f860214b6b178fc3923c5078ad8ded9ed9e4bbf1e5d4399bf3ab816040516100dc91906101bb565b60405180910390a150565b600080fd5b6000819050919050565b6100ff816100ec565b811461010a57600080fd5b50565b60008135905061011c816100f6565b92915050565b600060208284031215610138576101376100e7565b5b60006101468482850161010d565b91505092915050565b600082825260208201905092915050565b7f4950465368617368206d6f646966696361746f20284950465348617368290000600082015250565b6000610196601e8361014f565b91506101a182610160565b602082019050919050565b6101b5816100ec565b82525050565b600060408201905081810360008301526101d481610189565b90506101e360208301846101ac565b9291505056fea2646970667358221220210e3235eb9b7b5ae420781199dc94aacc23032c6b7e7da4bf10ca9b3b60abf664736f6c63430008120033",
  "immutableReferences": {},
  "source": "// SPDX-License-Identifier: MIT \npragma solidity ^0.8.0;\n\nuint8 constant MAX_LENGTH = 10;   // massimo numero di contratti pubblicabili e figli ottenibili\n\nenum artistState {NoReq, ReqInviata, ReqAccettata, ReqNegata}    // stati di gestione delle richieste \n\nstruct ArtistReq {\n    artistState state;  // stato della richiesta, pu asssumere uno dei valori preimpostati\n    address EA; // eth Address sender  \n    address thisContract;\n    bytes32 hash;   // hash dell' econtent a cui ha fatto richiesta\n    bool result;    // true se l'artista ha eseguito una richiesta che  stata accettata\n}\n\ncontract Factory{\n    address[] private contracts;    // lista di tutti i contratti pubblicati\n    address[] private freezedContracts;   // lista di tutti i contratti bloccati\n    uint32 private count_index = 0;    // contatore delle richieste ricevute\n\n    mapping (address => bool) private isArtist;   // mappa degli artisti registrati - true se sono registrati - false se non lo sono\n    mapping (address => address[]) private artistContracts;    // mappa di tutti i contratti pubblicati da un artista\n    mapping (address => address[]) private artistFreezedContracts;  // mappa di tutti i contratti congelati appartenti ad un artista\n    mapping (address => address[]) private childContractsObtained;   // mappa dei contratti figli che un utente ha ottenuto\n    mapping (address => address[]) private childContractsGiven;    // mappa dei contratti figli che un artista ha concesso\n    mapping (address => ArtistReq[]) private artistRequestsReceived; // mappa delle richieste ricevute da un artista\n    mapping (address => ArtistReq[]) private artistRequestsSent; // mappa delle richieste inviate da un artista\n    mapping (bytes32 => uint32) private index;    // mappa che indicizza l'hash univoco di una richiesta con un indice\n\n\n    // eventi factory contract\n    event ArtistAdded(string info, address indexed artist);\n    event DeployedContracts(string info, address indexed owner, address contractAddress);\n    event ChildCreated(string info, address indexed childOwner, address childAddress, address parentArtist, address parentContract);\n\n    // eventi content contract\n    event RegisteredReq(string info, address sender, address contractAddress, address owner);\n    event GrantedPerm(string info, address sender, address contractAddress, address owner);\n    event DeniedPerm(string info, address sender, address contractAddress, address owner);\n    event FreezedContract(string info, address indexed owner, address contractAddress);\n\n    // esegue il deploy di uno smart contract associandolo all'artista che ha chiamato il metodo\n    function createContract(string memory IPFSHash) public {\n        require(isArtist[msg.sender], \"Artista non presente in lista\");    // solo artisti registrati possono eseguire il deploy di contratti\n        require(artistContracts[msg.sender].length < MAX_LENGTH, \"Non possibile creare un contratto, limite raggiunto\"); // limito la quantit di contratti possedibili da un artista\n        \n        address newContract = address(new Content(msg.sender, keccak256(abi.encodePacked(IPFSHash)), address(this)));    // creazione contratto con proprietario il chiamante del metodo e l'hash del video (Converto una stringa in hash)\n        artistContracts[msg.sender].push(newContract);    // aggiungo il contratto alla lista dei contratti posseduti dall'artista\n        contracts.push(newContract);    // aggiungo il contratto alla lista di tutti i contratti\n        emit DeployedContracts(\"Contratto pubblicato: (owner, contractAddress)\", msg.sender, newContract);    // deploy del contratto completato\n    }\n\n    function createChildContract(address senderAddress, address parentArtist, bytes32 IPFShash, address partentContract, uint256 timestamp) external {        \n        ChildContent child = new ChildContent(senderAddress, parentArtist, IPFShash, partentContract, timestamp);   // creo il contratto figlio\n        childContractsObtained[senderAddress].push(address(child));  // aggiunge l'indirizzo del figlio alla mappa del padre\n        childContractsGiven[parentArtist].push(address(child));  // aggiunge l'indirizzo del figlio alla mappa del padre\n        emit ChildCreated(\"Contratto figlio pubblicato: (childOwner, childAddress, parentArtist, parentContract)\", senderAddress, address(child), parentArtist, partentContract); // contratto figlio creato\n    }\n\n    function registerArtist() public {  \n        require(!isArtist[msg.sender], \"Artista presente in lista\");    // per registrare un nuovo artista questo non pu essere gi registrato\n        \n        isArtist[msg.sender] = true; // imposto il valore dell'artista sulla mappa a true\n        emit ArtistAdded(\"Artista aggiunto in lista: (artistAddress)\", msg.sender); // artista aggiunto con successo\n    }\n\n    function getIsArtist(address user) public view returns (bool) {\n        return isArtist[user];\n    }\n\n    function getArtistContracts(address artist) public view returns (address[] memory) {\n        return artistContracts[artist];\n    }\n    \n    function getContracts() public view returns (address[] memory) {\n        return contracts;\n    }\n\n    function addArtistRequestsReceived(address artist, ArtistReq memory req) external {\n        artistRequestsReceived[artist].push(req);\n    }\n\n    function getArtistRequestsReceived(address artist) public view returns (ArtistReq[] memory) {\n        return artistRequestsReceived[artist];\n    }\n\n    function addArtistRequestsSent(address artist, ArtistReq memory req) external {\n        artistRequestsSent[artist].push(req);\n    }\n\n    function getArtistRequestsSent(address artist) public view returns (ArtistReq[] memory) {\n        return artistRequestsSent[artist];\n    }\n\n    function getChildContractsObtained(address artist) public view returns (address[] memory) {\n        return childContractsObtained[artist];\n    }\n\n    function getChildContractsGiven(address artist) public view returns (address[] memory) {\n        return childContractsGiven[artist];\n    }\n\n    function RegisteredReqEvent(address artist, address contractAddress, address owner) external {\n        bytes32 requestKey = keccak256(abi.encodePacked(artist, contractAddress, owner));\n        index[requestKey] = count_index;    // uso l'hash univoco come indice per la richiesta\n        count_index++;    // incremento il contatore delle richieste\n        emit RegisteredReq(\"Richiesta ricevuta (senderAddress, contractAddress, owner)\", artist, contractAddress, owner);\n    }\n\n    function GrantedPermEvent(address artist, address contractAddress, address owner) external {\n        bytes32 requestKey = keccak256(abi.encodePacked(artist, contractAddress, owner));\n        artistRequestsReceived[owner][index[requestKey]].result = true;    // aggiorno la richiesta ricevuta con l'esito positivo\n        artistRequestsReceived[owner][index[requestKey]].state = artistState.ReqAccettata;    // aggiorno lo stato della richiesta ricevuta\n        artistRequestsSent[artist][index[requestKey]].result = true;    // aggiorno la richiesta inviata con l'esito positivo\n        artistRequestsSent[artist][index[requestKey]].state = artistState.ReqAccettata;    // aggiorno lo stato della richiesta inviata \n        emit GrantedPerm(\"Permesso concesso (senderAddress, contractAddress, owner)\", artist, contractAddress, owner);\n    }\n\n    function DeniedPermEvent(address artist, address contractAddress, address owner) external {\n        bytes32 requestKey = keccak256(abi.encodePacked(artist, contractAddress, owner));\n        artistRequestsReceived[owner][index[requestKey]].state = artistState.ReqNegata;    // aggiorno la richiesta ricevuta con l'esito negativo\n        artistRequestsSent[artist][index[requestKey]].state = artistState.ReqNegata;    // aggiorno la richiesta inviata con l'esito negativo\n        emit DeniedPerm(\"Permesso negato (senderAddress, contractAddress, owner)\", artist, contractAddress, owner);\n    }\n\n    function addFreezedContracts(address contractAddress, address owner) external {\n        freezedContracts.push(contractAddress);\n        artistFreezedContracts[owner].push(contractAddress);\n        emit FreezedContract(\"Contratto congelato (owner, contractAddress)\", owner, contractAddress);\n    }\n\n    function getFreezedContracts() public view returns (address[] memory) {\n        return freezedContracts;\n    }\n\n    function getArtistFreezedContracts(address artist) public view returns (address[] memory) {\n        return artistFreezedContracts[artist];\n    }\n}\n\ncontract Content{\n    // il deploy di uno smart contract corrisponde con la pubblicazione di un video/immagine/canzone/...\n    // ogni SC si occupa di autenticare l'originalit del econtent e di gestire richieste eseguite da altri artisti/utenti di riutilizzare tale contenuto\n    address private _owner;  // proprietario dello SC\n    EContent private thisEContent;   // informazioni sul contenuto digitale\n    Factory private factory; // contratto factory che ha eseguito il deploy di questo SC\n    bool private freeze;    // determina il blocco del contratto, se vale true il contratto rifiuter tutte le richieste\n\n    struct EContent {\n        address owner;  // proprietario del econtent\n        bytes32 IPFS_Hash;    // IPFS hash del econtent\n        address SC_address;   // indirizzo SC associato all' econtent\n        uint256 timestamp;    // data pubblicazione\n    }\n\n    mapping (address => ArtistReq) private requests; // mappa che associa la richiesta ricevuta all'artista che l'ha fatta\n\n    modifier onlyOwner(){\n        require(msg.sender == _owner);\n        _;\n    } \n\n    modifier notOwner(){\n        require(msg.sender != _owner);\n        _;\n    }\n\n    constructor(address sender, bytes32 IPFShash, address factoryAddress){\n        factory = Factory(factoryAddress);  // salvo l'istanza del contratto Factory\n        _owner = sender;    // il proprietario  colui che ha creato lo SC\n        thisEContent.owner = sender;\n        thisEContent.IPFS_Hash = IPFShash;\n        thisEContent.SC_address = address(this);\n        thisEContent.timestamp = block.timestamp;   // salvo l'istante temporale in cui viene creato il blocco\n        freeze = false; // blocco del contratto, all'inizio impostato a false\n    }\n\n    // richiesta permesso di riutilizzo di un EContent - il proprietario non pu fare richiesta per un suo contenuto\n    function request() public notOwner{\n        require(requests[msg.sender].state == artistState.NoReq, \"Ammessa una sola richiesta per utente\");    // un utente pu fare una sola richiesta per contenuto\n        require(freeze == false, \"Contratto congelato\");   // esegue solo le il contratto non  stato bloccato\n\n        requests[msg.sender].state = artistState.ReqInviata; // aggiorno lo stato della richiesta e ne salvo le informazioni\n        requests[msg.sender].EA = msg.sender; \n        requests[msg.sender].thisContract = address(this);\n        requests[msg.sender].hash = thisEContent.IPFS_Hash;\n        requests[msg.sender].result = false;\n\n        factory.addArtistRequestsReceived(_owner, requests[msg.sender]);    // aggiungo la richiesta alla lista di quelle ricevute dal proprietario\n        factory.addArtistRequestsSent(msg.sender, requests[msg.sender]);    // aggiungo la richiesta alla lista di quelle inviate dall'artista\n        factory.RegisteredReqEvent(msg.sender, address(this), _owner); // comunico l'avvenuta registrazione della richiesta\n    }\n    \n    // il proprietario dello SC pu rispondere alle richieste, accettandole o rifiutandole - richiamabile sono dal proprietario\n    function reply(bool result, address senderAddress) public onlyOwner{\n        require(requests[senderAddress].state == artistState.ReqInviata);   // valuto solo richieste che necessitano di risposta\n        \n        if(result){ // richiesta accettata\n            requests[senderAddress].state = artistState.ReqAccettata;  // aggiorno lo stato della richiesta nella lista\n            requests[senderAddress].result = result;\n            factory.GrantedPermEvent(senderAddress, address(this), _owner); // comunico l'esito\n            factory.createChildContract(senderAddress, msg.sender, thisEContent.IPFS_Hash, thisEContent.SC_address, thisEContent.timestamp); // richiamo il metodo del contratto factory che crea il figlio\n        }\n        else {  // richiesta rifiutata\n            requests[senderAddress].state = artistState.ReqNegata;   // aggiorno lo stato della richiesta generale\n            factory.DeniedPermEvent(senderAddress, address(this), _owner); // comunico l'esito\n        }\n    }\n\n    function getOwner() public view returns (address) {\n        return _owner;\n    }\n\n    function freezeContract() public onlyOwner() {  // congela contratto - non potr ricevere nuove richieste\n        require(freeze == false);   // non posso congelare un contratto gi congelato\n        \n        freeze = true;\n        factory.addFreezedContracts(address(this), msg.sender);    // aggiungo il contratto alla lista di quelli bloccati\n    }\n}\n\ncontract ChildContent {\n    // il contratto figlio non pu ricevere ed elaborare richieste\n    address private _owner;  // proprietario dello SC\n    ChildEContent private childContent;  // informazioni del contratto figlio\n\n    struct ChildEContent {\n        address owner;  // proprietario del econtent\n        bytes32 IPFS_Hash;    // IPFS hash del econtent\n        address SC_address;   // indirizzo SC associato all' econtent\n        uint256 timestamp;    // data pubblicazione\n        Content.EContent parent_EC;    // informazioni del contratto genitore\n    }\n\n    modifier onlyOwner(){\n        require(msg.sender == _owner);\n        _;\n    }\n\n    event CangedIPFSHash(string info, bytes32 IPFShash);\n\n    constructor(address senderAddress, address parentArtist, bytes32 IPFShash, address parentContract, uint256 timestamp){\n        _owner = senderAddress; // il proprietario dello SC figlio  l'utente a cui  stata accettata la richiesta\n        childContent.owner = senderAddress; // il contenuto figlio  di propriet dell'artista che ha eseguito la richiesta, pu modificarlo\n        childContent.IPFS_Hash = IPFShash;  // inizializzo l'hash del video figlio uguale al padre, pot farne ci che vuole\n        childContent.SC_address = address(this);    // l'indirizzo del contratto figlio  l'indirizzo del contratto stesso\n        childContent.timestamp = block.timestamp;   // salvo l'istante temporale in cui viene creato il blocco\n        childContent.parent_EC.owner = parentArtist; // copio le informazioni dello SC padre \n        childContent.parent_EC.IPFS_Hash = IPFShash;\n        childContent.parent_EC.SC_address = parentContract;\n        childContent.parent_EC.timestamp = timestamp;\n    }\n\n    // il proprietario del contenuto figlio ha la possibilit di modificarlo e aggiornare l'hash\n    function setIPFSHash(bytes32 IPFSHash) public onlyOwner{\n        childContent.IPFS_Hash = IPFSHash;\n        emit CangedIPFSHash(\"IPFShash modificato (IPFSHash)\", IPFSHash);\n    }\n}",
  "sourcePath": "/home/cavallinux/Backup/Universit/ProgettoBlockchain/Progetto/truffle/contracts/SC.sol",
  "compiler": {
    "name": "solc",
    "version": "0.8.18+commit.87f61d96.Emscripten.clang"
  },
  "schemaVersion": "3.4.16",
  "updatedAt": "2024-08-12T22:10:16.324Z",
  "devdoc": {
    "kind": "dev",
    "methods": {},
    "version": 1
  },
  "userdoc": {
    "kind": "user",
    "methods": {},
    "version": 1
  }
}