{
  "contractName": "Content",
  "abi": [
    {
      "inputs": [
        {
          "internalType": "address",
          "name": "sender",
          "type": "address"
        },
        {
          "internalType": "bytes32",
          "name": "IPFShash",
          "type": "bytes32"
        },
        {
          "internalType": "address",
          "name": "factoryAddress",
          "type": "address"
        }
      ],
      "stateMutability": "nonpayable",
      "type": "constructor"
    },
    {
      "anonymous": false,
      "inputs": [
        {
          "indexed": false,
          "internalType": "string",
          "name": "info",
          "type": "string"
        },
        {
          "indexed": false,
          "internalType": "bytes32",
          "name": "requestHash",
          "type": "bytes32"
        }
      ],
      "name": "Reply",
      "type": "event"
    },
    {
      "anonymous": false,
      "inputs": [
        {
          "indexed": false,
          "internalType": "string",
          "name": "info",
          "type": "string"
        },
        {
          "indexed": false,
          "internalType": "bytes32",
          "name": "requestHash",
          "type": "bytes32"
        }
      ],
      "name": "Request",
      "type": "event"
    },
    {
      "inputs": [],
      "name": "request",
      "outputs": [],
      "stateMutability": "nonpayable",
      "type": "function"
    },
    {
      "inputs": [
        {
          "internalType": "bool",
          "name": "result",
          "type": "bool"
        },
        {
          "internalType": "address",
          "name": "senderAddress",
          "type": "address"
        }
      ],
      "name": "reply",
      "outputs": [],
      "stateMutability": "nonpayable",
      "type": "function"
    },
    {
      "inputs": [],
      "name": "getOwner",
      "outputs": [
        {
          "internalType": "address",
          "name": "",
          "type": "address"
        }
      ],
      "stateMutability": "view",
      "type": "function"
    },
    {
      "inputs": [],
      "name": "freezeContract",
      "outputs": [],
      "stateMutability": "nonpayable",
      "type": "function"
    }
  ],
  "bytecode": "0x60806040523480156200001157600080fd5b50604051620017663803806200176683398181016040528101906200003791906200021c565b80600560006101000a81548173ffffffffffffffffffffffffffffffffffffffff021916908373ffffffffffffffffffffffffffffffffffffffff160217905550826000806101000a81548173ffffffffffffffffffffffffffffffffffffffff021916908373ffffffffffffffffffffffffffffffffffffffff16021790555082600160000160006101000a81548173ffffffffffffffffffffffffffffffffffffffff021916908373ffffffffffffffffffffffffffffffffffffffff16021790555081600180018190555030600160020160006101000a81548173ffffffffffffffffffffffffffffffffffffffff021916908373ffffffffffffffffffffffffffffffffffffffff160217905550426001600301819055506000600560146101000a81548160ff02191690831515021790555050505062000278565b600080fd5b600073ffffffffffffffffffffffffffffffffffffffff82169050919050565b6000620001a9826200017c565b9050919050565b620001bb816200019c565b8114620001c757600080fd5b50565b600081519050620001db81620001b0565b92915050565b6000819050919050565b620001f681620001e1565b81146200020257600080fd5b50565b6000815190506200021681620001eb565b92915050565b60008060006060848603121562000238576200023762000177565b5b60006200024886828701620001ca565b93505060206200025b8682870162000205565b92505060406200026e86828701620001ca565b9150509250925092565b6114de80620002886000396000f3fe608060405234801561001057600080fd5b506004361061004c5760003560e01c806311c7c7e914610051578063338cdca11461006d578063893d20e814610077578063a584a9b514610095575b600080fd5b61006b60048036038101906100669190610dea565b61009f565b005b610075610593565b005b61007f610c02565b60405161008c9190610e39565b60405180910390f35b61009d610c2b565b005b60008054906101000a900473ffffffffffffffffffffffffffffffffffffffff1673ffffffffffffffffffffffffffffffffffffffff163373ffffffffffffffffffffffffffffffffffffffff16146100f757600080fd5b6001600381111561010b5761010a610e54565b5b600660008373ffffffffffffffffffffffffffffffffffffffff1673ffffffffffffffffffffffffffffffffffffffff16815260200190815260200160002060000160009054906101000a900460ff16600381111561016d5761016c610e54565b5b146101ad576040517f08c379a00000000000000000000000000000000000000000000000000000000081526004016101a490610f06565b60405180910390fd5b81156103f1576002600660008373ffffffffffffffffffffffffffffffffffffffff1673ffffffffffffffffffffffffffffffffffffffff16815260200190815260200160002060000160006101000a81548160ff0219169083600381111561021957610218610e54565b5b021790555081600660008373ffffffffffffffffffffffffffffffffffffffff1673ffffffffffffffffffffffffffffffffffffffff16815260200190815260200160002060030160006101000a81548160ff021916908315150217905550600560009054906101000a900473ffffffffffffffffffffffffffffffffffffffff1673ffffffffffffffffffffffffffffffffffffffff16633ff9e83f823060008054906101000a900473ffffffffffffffffffffffffffffffffffffffff166040518463ffffffff1660e01b81526004016102f793929190610f26565b600060405180830381600087803b15801561031157600080fd5b505af1158015610325573d6000803e3d6000fd5b50505050600560009054906101000a900473ffffffffffffffffffffffffffffffffffffffff1673ffffffffffffffffffffffffffffffffffffffff16633f77dd9d82336001800154600160020160009054906101000a900473ffffffffffffffffffffffffffffffffffffffff166001600301546040518663ffffffff1660e01b81526004016103ba959493929190610f8f565b600060405180830381600087803b1580156103d457600080fd5b505af11580156103e8573d6000803e3d6000fd5b5050505061050e565b6003600660008373ffffffffffffffffffffffffffffffffffffffff1673ffffffffffffffffffffffffffffffffffffffff16815260200190815260200160002060000160006101000a81548160ff0219169083600381111561045757610456610e54565b5b0217905550600560009054906101000a900473ffffffffffffffffffffffffffffffffffffffff1673ffffffffffffffffffffffffffffffffffffffff16630609b7fd823060008054906101000a900473ffffffffffffffffffffffffffffffffffffffff166040518463ffffffff1660e01b81526004016104db93929190610f26565b600060405180830381600087803b1580156104f557600080fd5b505af1158015610509573d6000803e3d6000fd5b505050505b7ff7011a0f62dea6ba56883a9f1b74a4d2222d9c1c31fb61f8e911ce64fac07c09813060008054906101000a900473ffffffffffffffffffffffffffffffffffffffff166040516020016105649392919061102a565b6040516020818303038152906040528051906020012060405161058791906110b3565b60405180910390a15050565b60008054906101000a900473ffffffffffffffffffffffffffffffffffffffff1673ffffffffffffffffffffffffffffffffffffffff163373ffffffffffffffffffffffffffffffffffffffff16036105eb57600080fd5b600060038111156105ff576105fe610e54565b5b600660003373ffffffffffffffffffffffffffffffffffffffff1673ffffffffffffffffffffffffffffffffffffffff16815260200190815260200160002060000160009054906101000a900460ff16600381111561066157610660610e54565b5b146106a1576040517f08c379a000000000000000000000000000000000000000000000000000000000815260040161069890611153565b60405180910390fd5b60001515600560149054906101000a900460ff161515146106f7576040517f08c379a00000000000000000000000000000000000000000000000000000000081526004016106ee906111bf565b60405180910390fd5b6001600660003373ffffffffffffffffffffffffffffffffffffffff1673ffffffffffffffffffffffffffffffffffffffff16815260200190815260200160002060000160006101000a81548160ff0219169083600381111561075d5761075c610e54565b5b021790555033600660003373ffffffffffffffffffffffffffffffffffffffff1673ffffffffffffffffffffffffffffffffffffffff16815260200190815260200160002060000160016101000a81548173ffffffffffffffffffffffffffffffffffffffff021916908373ffffffffffffffffffffffffffffffffffffffff16021790555030600660003373ffffffffffffffffffffffffffffffffffffffff1673ffffffffffffffffffffffffffffffffffffffff16815260200190815260200160002060010160006101000a81548173ffffffffffffffffffffffffffffffffffffffff021916908373ffffffffffffffffffffffffffffffffffffffff1602179055506001800154600660003373ffffffffffffffffffffffffffffffffffffffff1673ffffffffffffffffffffffffffffffffffffffff168152602001908152602001600020600201819055506000600660003373ffffffffffffffffffffffffffffffffffffffff1673ffffffffffffffffffffffffffffffffffffffff16815260200190815260200160002060030160006101000a81548160ff0219169083151502179055506000333060008054906101000a900473ffffffffffffffffffffffffffffffffffffffff166040516020016109419392919061102a565b604051602081830303815290604052805190602001209050600560009054906101000a900473ffffffffffffffffffffffffffffffffffffffff1673ffffffffffffffffffffffffffffffffffffffff166319790a7e60008054906101000a900473ffffffffffffffffffffffffffffffffffffffff16600660003373ffffffffffffffffffffffffffffffffffffffff1673ffffffffffffffffffffffffffffffffffffffff168152602001908152602001600020846040518463ffffffff1660e01b8152600401610a16939291906113ce565b600060405180830381600087803b158015610a3057600080fd5b505af1158015610a44573d6000803e3d6000fd5b50505050600560009054906101000a900473ffffffffffffffffffffffffffffffffffffffff1673ffffffffffffffffffffffffffffffffffffffff16639204fd3c33600660003373ffffffffffffffffffffffffffffffffffffffff1673ffffffffffffffffffffffffffffffffffffffff168152602001908152602001600020846040518463ffffffff1660e01b8152600401610ae5939291906113ce565b600060405180830381600087803b158015610aff57600080fd5b505af1158015610b13573d6000803e3d6000fd5b50505050600560009054906101000a900473ffffffffffffffffffffffffffffffffffffffff1673ffffffffffffffffffffffffffffffffffffffff1663143914e8333060008054906101000a900473ffffffffffffffffffffffffffffffffffffffff166040518463ffffffff1660e01b8152600401610b9693929190610f26565b600060405180830381600087803b158015610bb057600080fd5b505af1158015610bc4573d6000803e3d6000fd5b505050507f9946568b7b40c84fb1a266ae041f129cc8ff176c698f7ee513f0f51486a6eafb81604051610bf79190611451565b60405180910390a150565b60008060009054906101000a900473ffffffffffffffffffffffffffffffffffffffff16905090565b60008054906101000a900473ffffffffffffffffffffffffffffffffffffffff1673ffffffffffffffffffffffffffffffffffffffff163373ffffffffffffffffffffffffffffffffffffffff1614610c8357600080fd5b60001515600560149054906101000a900460ff16151514610ca357600080fd5b6001600560146101000a81548160ff021916908315150217905550600560009054906101000a900473ffffffffffffffffffffffffffffffffffffffff1673ffffffffffffffffffffffffffffffffffffffff166396aebbad30336040518363ffffffff1660e01b8152600401610d1b92919061147f565b600060405180830381600087803b158015610d3557600080fd5b505af1158015610d49573d6000803e3d6000fd5b50505050565b600080fd5b60008115159050919050565b610d6981610d54565b8114610d7457600080fd5b50565b600081359050610d8681610d60565b92915050565b600073ffffffffffffffffffffffffffffffffffffffff82169050919050565b6000610db782610d8c565b9050919050565b610dc781610dac565b8114610dd257600080fd5b50565b600081359050610de481610dbe565b92915050565b60008060408385031215610e0157610e00610d4f565b5b6000610e0f85828601610d77565b9250506020610e2085828601610dd5565b9150509250929050565b610e3381610dac565b82525050565b6000602082019050610e4e6000830184610e2a565b92915050565b7f4e487b7100000000000000000000000000000000000000000000000000000000600052602160045260246000fd5b600082825260208201905092915050565b7f526963686965737461206e6f6e20696e2061747465736120646920726973706f60008201527f7374610000000000000000000000000000000000000000000000000000000000602082015250565b6000610ef0602383610e83565b9150610efb82610e94565b604082019050919050565b60006020820190508181036000830152610f1f81610ee3565b9050919050565b6000606082019050610f3b6000830186610e2a565b610f486020830185610e2a565b610f556040830184610e2a565b949350505050565b6000819050919050565b610f7081610f5d565b82525050565b6000819050919050565b610f8981610f76565b82525050565b600060a082019050610fa46000830188610e2a565b610fb16020830187610e2a565b610fbe6040830186610f67565b610fcb6060830185610e2a565b610fd86080830184610f80565b9695505050505050565b60008160601b9050919050565b6000610ffa82610fe2565b9050919050565b600061100c82610fef565b9050919050565b61102461101f82610dac565b611001565b82525050565b60006110368286611013565b6014820191506110468285611013565b6014820191506110568284611013565b601482019150819050949350505050565b7f526973706f73746120696e76696174613a200000000000000000000000000000600082015250565b600061109d601283610e83565b91506110a882611067565b602082019050919050565b600060408201905081810360008301526110cc81611090565b90506110db6020830184610f67565b92915050565b7f416d6d6573736120756e6120736f6c612072696368696573746120706572207560008201527f74656e7465000000000000000000000000000000000000000000000000000000602082015250565b600061113d602583610e83565b9150611148826110e1565b604082019050919050565b6000602082019050818103600083015261116c81611130565b9050919050565b7f436f6e74726174746f20636f6e67656c61746f00000000000000000000000000600082015250565b60006111a9601383610e83565b91506111b482611173565b602082019050919050565b600060208201905081810360008301526111d88161119c565b9050919050565b60008160001c9050919050565b600060ff82169050919050565b600061120c611207836111df565b6111ec565b9050919050565b6004811061122457611223610e54565b5b50565b600081905061123582611213565b919050565b600061124582611227565b9050919050565b6112558161123a565b82525050565b60008160081c9050919050565b600073ffffffffffffffffffffffffffffffffffffffff82169050919050565b600061129b6112968361125b565b611268565b9050919050565b6112ab81610dac565b82525050565b60006112c46112bf836111df565b611268565b9050919050565b6000819050919050565b60006112e86112e3836111df565b6112cb565b9050919050565b6112f881610f5d565b82525050565b600060ff82169050919050565b600061131e611319836111df565b6112fe565b9050919050565b61132e81610d54565b82525050565b60a082016000808301549050611349816111f9565b611356600086018261124c565b5061136081611288565b61136d60208601826112a2565b506001830154905061137e816112b1565b61138b60408601826112a2565b506002830154905061139c816112d5565b6113a960608601826112ef565b50600383015490506113ba8161130b565b6113c76080860182611325565b5050505050565b600060e0820190506113e36000830186610e2a565b6113f06020830185611334565b6113fd60c0830184610f67565b949350505050565b7f52696368696573746120726567697374726174613a2000000000000000000000600082015250565b600061143b601683610e83565b915061144682611405565b602082019050919050565b6000604082019050818103600083015261146a8161142e565b90506114796020830184610f67565b92915050565b60006040820190506114946000830185610e2a565b6114a16020830184610e2a565b939250505056fea264697066735822122030a506c8e28acda61697bd572458e4943f059e728c28262465fa1b0bec87e36664736f6c63430008120033",
  "immutableReferences": {},
  "source": "// SPDX-License-Identifier: MIT \npragma solidity ^0.8.0;\n\nuint8 constant MAX_LENGTH = 10;   // massimo numero di contratti pubblicabili e figli ottenibili\n\nenum artistState {NoReq, ReqInviata, ReqAccettata, ReqNegata}    // stati di gestione delle richieste \n\nstruct ArtistReq {\n    artistState state;  // stato della richiesta, pu asssumere uno dei valori preimpostati\n    address EA; // eth Address sender  \n    address thisContract;\n    bytes32 hash;   // hash dell' econtent a cui ha fatto richiesta\n    bool result;    // true se l'artista ha eseguito una richiesta che  stata accettata\n}\n\ncontract Factory{\n    address[] private contracts;    // lista di tutti i contratti pubblicati\n    address[] private freezedContracts;   // lista di tutti i contratti bloccati\n\n    mapping (address => bool) private isArtist;   // mappa degli artisti registrati - true se sono registrati - false se non lo sono\n    mapping (address => address[]) private artistContracts;    // mappa di tutti i contratti pubblicati da un artista\n    mapping (address => address[]) private artistFreezedContracts;  // mappa di tutti i contratti congelati appartenti ad un artista\n    mapping (address => address[]) private childContractsObtained;   // mappa dei contratti figli che un utente ha ottenuto\n    mapping (address => address[]) private childContractsGiven;    // mappa dei contratti figli che un artista ha concesso\n    mapping (address => ArtistReq[]) private artistRequestsReceived; // mappa delle richieste ricevute da un artista\n    mapping (address => ArtistReq[]) private artistRequestsSent; // mappa delle richieste inviate da un artista\n    mapping (bytes32 => uint) private indexArtistRequestsReceived;    // mappa che indicizza l'hash univoco di una richiesta con un indice\n    mapping (bytes32 => uint) private indexArtistRequestsSent;    // mappa che indicizza l'hash univoco di una richiesta con un indice\n\n\n    // eventi factory contract\n    event ArtistAdded(string info, address indexed artist);\n    event DeployedContracts(string info, address indexed owner, address contractAddress);\n    event ChildCreated(string info, address indexed childOwner, address childAddress, address parentArtist, address parentContract);\n\n    // eventi content contract\n    event RegisteredReq(string info, address sender, address contractAddress, address owner);\n    event GrantedPerm(string info, address sender, address contractAddress, address owner);\n    event DeniedPerm(string info, address sender, address contractAddress, address owner);\n    event FreezedContract(string info, address indexed owner, address contractAddress);\n\n    // esegue il deploy di uno smart contract associandolo all'artista che ha chiamato il metodo\n    function createContract(string memory IPFSHash) public {\n        require(isArtist[msg.sender], \"Artista non presente in lista\");    // solo artisti registrati possono eseguire il deploy di contratti\n        require(artistContracts[msg.sender].length < MAX_LENGTH, \"Non possibile creare un contratto, limite raggiunto\"); // limito la quantit di contratti possedibili da un artista\n        \n        address newContract = address(new Content(msg.sender, keccak256(abi.encodePacked(IPFSHash)), address(this)));    // creazione contratto con proprietario il chiamante del metodo e l'hash del video (Converto una stringa in hash)\n        artistContracts[msg.sender].push(newContract);    // aggiungo il contratto alla lista dei contratti posseduti dall'artista\n        contracts.push(newContract);    // aggiungo il contratto alla lista di tutti i contratti\n        emit DeployedContracts(\"Contratto pubblicato: (owner, contractAddress)\", msg.sender, newContract);    // deploy del contratto completato\n    }\n\n    function createChildContract(address senderAddress, address parentArtist, bytes32 IPFShash, address partentContract, uint256 timestamp) external {        \n        ChildContent child = new ChildContent(senderAddress, parentArtist, IPFShash, partentContract, timestamp);   // creo il contratto figlio\n        childContractsObtained[senderAddress].push(address(child));  // aggiunge l'indirizzo del figlio alla mappa del padre\n        childContractsGiven[parentArtist].push(address(child));  // aggiunge l'indirizzo del figlio alla mappa del padre\n        emit ChildCreated(\"Contratto figlio pubblicato: (childOwner, childAddress, parentArtist, parentContract)\", senderAddress, address(child), parentArtist, partentContract); // contratto figlio creato\n    }\n\n    function registerArtist() public {  \n        require(!isArtist[msg.sender], \"Artista presente in lista\");    // per registrare un nuovo artista questo non pu essere gi registrato\n        \n        isArtist[msg.sender] = true; // imposto il valore dell'artista sulla mappa a true\n        emit ArtistAdded(\"Artista aggiunto in lista: (artistAddress)\", msg.sender); // artista aggiunto con successo\n    }\n\n    function getIsArtist(address user) public view returns (bool) {\n        return isArtist[user];\n    }\n\n    function getArtistContracts(address artist) public view returns (address[] memory) {\n        return artistContracts[artist];\n    }\n    \n    function getContracts() public view returns (address[] memory) {\n        return contracts;\n    }\n\n    function addArtistRequestsReceived(address artist, ArtistReq memory req, bytes32 requestKey) external {\n        artistRequestsReceived[artist].push(req);\n        indexArtistRequestsReceived[requestKey] = artistRequestsReceived[artist].length - 1;    // salvo l'indice della richiesta ricevuta\n    }\n\n    function getArtistRequestsReceived(address artist) public view returns (ArtistReq[] memory) {\n        return artistRequestsReceived[artist];\n    }\n\n    function addArtistRequestsSent(address artist, ArtistReq memory req, bytes32 requestKey) external {\n        artistRequestsSent[artist].push(req);\n        indexArtistRequestsSent[requestKey] = artistRequestsSent[artist].length - 1;    // salvo l'indice della richiesta inviata\n    }\n\n    function getArtistRequestsSent(address artist) public view returns (ArtistReq[] memory) {\n        return artistRequestsSent[artist];\n    }\n\n    function getChildContractsObtained(address artist) public view returns (address[] memory) {\n        return childContractsObtained[artist];\n    }\n\n    function getChildContractsGiven(address artist) public view returns (address[] memory) {\n        return childContractsGiven[artist];\n    }\n\n    function RegisteredReqEvent(address artist, address contractAddress, address owner) external {\n        emit RegisteredReq(\"Richiesta ricevuta (senderAddress, contractAddress, owner)\", artist, contractAddress, owner);\n    }\n\n    function GrantedPermEvent(address artist, address contractAddress, address owner) external {\n        bytes32 requestKey = keccak256(abi.encodePacked(artist, contractAddress, owner));\n        artistRequestsReceived[owner][indexArtistRequestsReceived[requestKey]].result = true;    // aggiorno la richiesta ricevuta con l'esito positivo\n        artistRequestsReceived[owner][indexArtistRequestsReceived[requestKey]].state = artistState.ReqAccettata;    // aggiorno lo stato della richiesta ricevuta\n        artistRequestsSent[artist][indexArtistRequestsSent[requestKey]].result = true;    // aggiorno la richiesta inviata con l'esito positivo\n        artistRequestsSent[artist][indexArtistRequestsSent[requestKey]].state = artistState.ReqAccettata;    // aggiorno lo stato della richiesta inviata \n        emit GrantedPerm(\"Permesso concesso (senderAddress, contractAddress, owner)\", artist, contractAddress, owner);\n    }\n\n    function DeniedPermEvent(address artist, address contractAddress, address owner) external {\n        bytes32 requestKey = keccak256(abi.encodePacked(artist, contractAddress, owner));\n        artistRequestsReceived[owner][indexArtistRequestsReceived[requestKey]].state = artistState.ReqNegata;    // aggiorno la richiesta ricevuta con l'esito negativo\n        artistRequestsSent[artist][indexArtistRequestsSent[requestKey]].state = artistState.ReqNegata;    // aggiorno la richiesta inviata con l'esito negativo\n        emit DeniedPerm(\"Permesso negato (senderAddress, contractAddress, owner)\", artist, contractAddress, owner);\n    }\n\n    function addFreezedContracts(address contractAddress, address owner) external {\n        freezedContracts.push(contractAddress);\n        artistFreezedContracts[owner].push(contractAddress);\n        emit FreezedContract(\"Contratto congelato (owner, contractAddress)\", owner, contractAddress);\n    }\n\n    function getFreezedContracts() public view returns (address[] memory) {\n        return freezedContracts;\n    }\n\n    function getArtistFreezedContracts(address artist) public view returns (address[] memory) {\n        return artistFreezedContracts[artist];\n    }\n}\n\ncontract Content{\n    // il deploy di uno smart contract corrisponde con la pubblicazione di un video/immagine/canzone/...\n    // ogni SC si occupa di autenticare l'originalit del econtent e di gestire richieste eseguite da altri artisti/utenti di riutilizzare tale contenuto\n    address private _owner;  // proprietario dello SC\n    EContent private thisEContent;   // informazioni sul contenuto digitale\n    Factory private factory; // contratto factory che ha eseguito il deploy di questo SC\n    bool private freeze;    // determina il blocco del contratto, se vale true il contratto rifiuter tutte le richieste\n\n    struct EContent {\n        address owner;  // proprietario del econtent\n        bytes32 IPFS_Hash;    // IPFS hash del econtent\n        address SC_address;   // indirizzo SC associato all' econtent\n        uint256 timestamp;    // data pubblicazione\n    }\n\n    mapping (address => ArtistReq) private requests; // mappa che associa la richiesta ricevuta all'artista che l'ha fatta\n\n    event Request (string info, bytes32 requestHash);\n    event Reply (string info, bytes32 requestHash);\n\n    modifier onlyOwner(){\n        require(msg.sender == _owner);\n        _;\n    } \n\n    modifier notOwner(){\n        require(msg.sender != _owner);\n        _;\n    }\n\n    constructor(address sender, bytes32 IPFShash, address factoryAddress){\n        factory = Factory(factoryAddress);  // salvo l'istanza del contratto Factory\n        _owner = sender;    // il proprietario  colui che ha creato lo SC\n        thisEContent.owner = sender;\n        thisEContent.IPFS_Hash = IPFShash;\n        thisEContent.SC_address = address(this);\n        thisEContent.timestamp = block.timestamp;   // salvo l'istante temporale in cui viene creato il blocco\n        freeze = false; // blocco del contratto, all'inizio impostato a false\n    }\n\n    // richiesta permesso di riutilizzo di un EContent - il proprietario non pu fare richiesta per un suo contenuto\n    function request() public notOwner{\n        require(requests[msg.sender].state == artistState.NoReq, \"Ammessa una sola richiesta per utente\");    // un utente pu fare una sola richiesta per contenuto\n        require(freeze == false, \"Contratto congelato\");   // esegue solo le il contratto non  stato bloccato\n\n        requests[msg.sender].state = artistState.ReqInviata; // aggiorno lo stato della richiesta e ne salvo le informazioni\n        requests[msg.sender].EA = msg.sender; \n        requests[msg.sender].thisContract = address(this);\n        requests[msg.sender].hash = thisEContent.IPFS_Hash;\n        requests[msg.sender].result = false;\n\n        bytes32 requestKey = keccak256(abi.encodePacked(msg.sender, address(this), _owner));\n        factory.addArtistRequestsReceived(_owner, requests[msg.sender], requestKey);    // aggiungo la richiesta alla lista di quelle ricevute dal proprietario\n        factory.addArtistRequestsSent(msg.sender, requests[msg.sender], requestKey);    // aggiungo la richiesta alla lista di quelle inviate dall'artista\n        factory.RegisteredReqEvent(msg.sender, address(this), _owner); // comunico l'avvenuta registrazione della richiesta\n        emit Request(\"Richiesta registrata: \", requestKey);\n    }\n    \n    // il proprietario dello SC pu rispondere alle richieste, accettandole o rifiutandole - richiamabile sono dal proprietario\n    function reply(bool result, address senderAddress) public onlyOwner{\n        require(requests[senderAddress].state == artistState.ReqInviata, \"Richiesta non in attesa di risposta\");   // valuto solo richieste che necessitano di risposta\n        \n        if(result){ // richiesta accettata\n            requests[senderAddress].state = artistState.ReqAccettata;  // aggiorno lo stato della richiesta nella lista\n            requests[senderAddress].result = result;\n            factory.GrantedPermEvent(senderAddress, address(this), _owner); // comunico l'esito\n            factory.createChildContract(senderAddress, msg.sender, thisEContent.IPFS_Hash, thisEContent.SC_address, thisEContent.timestamp); // richiamo il metodo del contratto factory che crea il figlio\n        }\n        else {  // richiesta rifiutata\n            requests[senderAddress].state = artistState.ReqNegata;   // aggiorno lo stato della richiesta generale\n            factory.DeniedPermEvent(senderAddress, address(this), _owner); // comunico l'esito\n        }\n        emit Reply(\"Risposta inviata: \", keccak256(abi.encodePacked(senderAddress, address(this), _owner)));\n    }\n\n    function getOwner() public view returns (address) {\n        return _owner;\n    }\n\n    function freezeContract() public onlyOwner() {  // congela contratto - non potr ricevere nuove richieste\n        require(freeze == false);   // non posso congelare un contratto gi congelato\n        \n        freeze = true;\n        factory.addFreezedContracts(address(this), msg.sender);    // aggiungo il contratto alla lista di quelli bloccati\n    }\n}\n\ncontract ChildContent {\n    // il contratto figlio non pu ricevere ed elaborare richieste\n    address private _owner;  // proprietario dello SC\n    ChildEContent private childContent;  // informazioni del contratto figlio\n\n    struct ChildEContent {\n        address owner;  // proprietario del econtent\n        bytes32 IPFS_Hash;    // IPFS hash del econtent\n        address SC_address;   // indirizzo SC associato all' econtent\n        uint256 timestamp;    // data pubblicazione\n        Content.EContent parent_EC;    // informazioni del contratto genitore\n    }\n\n    modifier onlyOwner(){\n        require(msg.sender == _owner);\n        _;\n    }\n\n    event CangedIPFSHash(string info, bytes32 IPFShash);\n\n    constructor(address senderAddress, address parentArtist, bytes32 IPFShash, address parentContract, uint256 timestamp){\n        _owner = senderAddress; // il proprietario dello SC figlio  l'utente a cui  stata accettata la richiesta\n        childContent.owner = senderAddress; // il contenuto figlio  di propriet dell'artista che ha eseguito la richiesta, pu modificarlo\n        childContent.IPFS_Hash = IPFShash;  // inizializzo l'hash del video figlio uguale al padre, pot farne ci che vuole\n        childContent.SC_address = address(this);    // l'indirizzo del contratto figlio  l'indirizzo del contratto stesso\n        childContent.timestamp = block.timestamp;   // salvo l'istante temporale in cui viene creato il blocco\n        childContent.parent_EC.owner = parentArtist; // copio le informazioni dello SC padre \n        childContent.parent_EC.IPFS_Hash = IPFShash;\n        childContent.parent_EC.SC_address = parentContract;\n        childContent.parent_EC.timestamp = timestamp;\n    }\n\n    // il proprietario del contenuto figlio ha la possibilit di modificarlo e aggiornare l'hash\n    function setIPFSHash(bytes32 IPFSHash) public onlyOwner{\n        childContent.IPFS_Hash = IPFSHash;\n        emit CangedIPFSHash(\"IPFShash modificato (IPFSHash)\", IPFSHash);\n    }\n}",
  "sourcePath": "/home/cavallinux/Backup/Universit/ProgettoBlockchain/Progetto/truffle/contracts/SC.sol",
  "compiler": {
    "name": "solc",
    "version": "0.8.18+commit.87f61d96.Emscripten.clang"
  },
  "schemaVersion": "3.4.16",
  "updatedAt": "2024-08-25T17:11:19.510Z",
  "devdoc": {
    "kind": "dev",
    "methods": {},
    "version": 1
  },
  "userdoc": {
    "kind": "user",
    "methods": {},
    "version": 1
  }
}