{
  "contractName": "Factory",
  "abi": [
    {
      "anonymous": false,
      "inputs": [
        {
          "indexed": false,
          "internalType": "string",
          "name": "info",
          "type": "string"
        },
        {
          "indexed": true,
          "internalType": "address",
          "name": "artist",
          "type": "address"
        }
      ],
      "name": "ArtistAdded",
      "type": "event"
    },
    {
      "anonymous": false,
      "inputs": [
        {
          "indexed": false,
          "internalType": "string",
          "name": "info",
          "type": "string"
        },
        {
          "indexed": true,
          "internalType": "address",
          "name": "childOwner",
          "type": "address"
        },
        {
          "indexed": false,
          "internalType": "address",
          "name": "childAddress",
          "type": "address"
        },
        {
          "indexed": false,
          "internalType": "address",
          "name": "parentArtist",
          "type": "address"
        },
        {
          "indexed": false,
          "internalType": "address",
          "name": "parentContract",
          "type": "address"
        }
      ],
      "name": "ChildCreated",
      "type": "event"
    },
    {
      "anonymous": false,
      "inputs": [
        {
          "indexed": false,
          "internalType": "string",
          "name": "info",
          "type": "string"
        },
        {
          "indexed": false,
          "internalType": "address",
          "name": "sender",
          "type": "address"
        },
        {
          "indexed": false,
          "internalType": "address",
          "name": "contractAddress",
          "type": "address"
        },
        {
          "indexed": false,
          "internalType": "address",
          "name": "owner",
          "type": "address"
        }
      ],
      "name": "DeniedPerm",
      "type": "event"
    },
    {
      "anonymous": false,
      "inputs": [
        {
          "indexed": false,
          "internalType": "string",
          "name": "info",
          "type": "string"
        },
        {
          "indexed": true,
          "internalType": "address",
          "name": "owner",
          "type": "address"
        },
        {
          "indexed": false,
          "internalType": "address",
          "name": "contractAddress",
          "type": "address"
        }
      ],
      "name": "DeployedContracts",
      "type": "event"
    },
    {
      "anonymous": false,
      "inputs": [
        {
          "indexed": false,
          "internalType": "string",
          "name": "info",
          "type": "string"
        },
        {
          "indexed": true,
          "internalType": "address",
          "name": "owner",
          "type": "address"
        },
        {
          "indexed": false,
          "internalType": "address",
          "name": "contractAddress",
          "type": "address"
        }
      ],
      "name": "FreezedContract",
      "type": "event"
    },
    {
      "anonymous": false,
      "inputs": [
        {
          "indexed": false,
          "internalType": "string",
          "name": "info",
          "type": "string"
        },
        {
          "indexed": false,
          "internalType": "address",
          "name": "sender",
          "type": "address"
        },
        {
          "indexed": false,
          "internalType": "address",
          "name": "contractAddress",
          "type": "address"
        },
        {
          "indexed": false,
          "internalType": "address",
          "name": "owner",
          "type": "address"
        }
      ],
      "name": "GrantedPerm",
      "type": "event"
    },
    {
      "anonymous": false,
      "inputs": [
        {
          "indexed": false,
          "internalType": "string",
          "name": "info",
          "type": "string"
        },
        {
          "indexed": false,
          "internalType": "address",
          "name": "sender",
          "type": "address"
        },
        {
          "indexed": false,
          "internalType": "address",
          "name": "contractAddress",
          "type": "address"
        },
        {
          "indexed": false,
          "internalType": "address",
          "name": "owner",
          "type": "address"
        }
      ],
      "name": "RegisteredReq",
      "type": "event"
    },
    {
      "inputs": [
        {
          "internalType": "string",
          "name": "IPFSHash",
          "type": "string"
        }
      ],
      "name": "createContract",
      "outputs": [],
      "stateMutability": "nonpayable",
      "type": "function"
    },
    {
      "inputs": [
        {
          "internalType": "address",
          "name": "senderAddress",
          "type": "address"
        },
        {
          "internalType": "address",
          "name": "parentArtist",
          "type": "address"
        },
        {
          "internalType": "bytes32",
          "name": "IPFShash",
          "type": "bytes32"
        },
        {
          "internalType": "address",
          "name": "parentContract",
          "type": "address"
        },
        {
          "internalType": "uint256",
          "name": "timestamp",
          "type": "uint256"
        }
      ],
      "name": "createChildContract",
      "outputs": [],
      "stateMutability": "nonpayable",
      "type": "function"
    },
    {
      "inputs": [],
      "name": "registerArtist",
      "outputs": [],
      "stateMutability": "nonpayable",
      "type": "function"
    },
    {
      "inputs": [
        {
          "internalType": "address",
          "name": "user",
          "type": "address"
        }
      ],
      "name": "getIsArtist",
      "outputs": [
        {
          "internalType": "bool",
          "name": "",
          "type": "bool"
        }
      ],
      "stateMutability": "view",
      "type": "function"
    },
    {
      "inputs": [
        {
          "internalType": "address",
          "name": "artist",
          "type": "address"
        }
      ],
      "name": "getArtistContracts",
      "outputs": [
        {
          "internalType": "address[]",
          "name": "",
          "type": "address[]"
        }
      ],
      "stateMutability": "view",
      "type": "function"
    },
    {
      "inputs": [],
      "name": "getContracts",
      "outputs": [
        {
          "internalType": "address[]",
          "name": "",
          "type": "address[]"
        }
      ],
      "stateMutability": "view",
      "type": "function"
    },
    {
      "inputs": [
        {
          "internalType": "address",
          "name": "artist",
          "type": "address"
        },
        {
          "components": [
            {
              "internalType": "enum artistState",
              "name": "state",
              "type": "uint8"
            },
            {
              "internalType": "address",
              "name": "EA",
              "type": "address"
            },
            {
              "internalType": "address",
              "name": "thisContract",
              "type": "address"
            },
            {
              "internalType": "bytes32",
              "name": "hash",
              "type": "bytes32"
            },
            {
              "internalType": "bool",
              "name": "result",
              "type": "bool"
            }
          ],
          "internalType": "struct ArtistReq",
          "name": "req",
          "type": "tuple"
        },
        {
          "internalType": "bytes32",
          "name": "requestKey",
          "type": "bytes32"
        }
      ],
      "name": "addArtistRequestsReceived",
      "outputs": [],
      "stateMutability": "nonpayable",
      "type": "function"
    },
    {
      "inputs": [
        {
          "internalType": "address",
          "name": "artist",
          "type": "address"
        }
      ],
      "name": "getArtistRequestsReceived",
      "outputs": [
        {
          "components": [
            {
              "internalType": "enum artistState",
              "name": "state",
              "type": "uint8"
            },
            {
              "internalType": "address",
              "name": "EA",
              "type": "address"
            },
            {
              "internalType": "address",
              "name": "thisContract",
              "type": "address"
            },
            {
              "internalType": "bytes32",
              "name": "hash",
              "type": "bytes32"
            },
            {
              "internalType": "bool",
              "name": "result",
              "type": "bool"
            }
          ],
          "internalType": "struct ArtistReq[]",
          "name": "",
          "type": "tuple[]"
        }
      ],
      "stateMutability": "view",
      "type": "function"
    },
    {
      "inputs": [
        {
          "internalType": "address",
          "name": "artist",
          "type": "address"
        },
        {
          "components": [
            {
              "internalType": "enum artistState",
              "name": "state",
              "type": "uint8"
            },
            {
              "internalType": "address",
              "name": "EA",
              "type": "address"
            },
            {
              "internalType": "address",
              "name": "thisContract",
              "type": "address"
            },
            {
              "internalType": "bytes32",
              "name": "hash",
              "type": "bytes32"
            },
            {
              "internalType": "bool",
              "name": "result",
              "type": "bool"
            }
          ],
          "internalType": "struct ArtistReq",
          "name": "req",
          "type": "tuple"
        },
        {
          "internalType": "bytes32",
          "name": "requestKey",
          "type": "bytes32"
        }
      ],
      "name": "addArtistRequestsSent",
      "outputs": [],
      "stateMutability": "nonpayable",
      "type": "function"
    },
    {
      "inputs": [
        {
          "internalType": "address",
          "name": "artist",
          "type": "address"
        }
      ],
      "name": "getArtistRequestsSent",
      "outputs": [
        {
          "components": [
            {
              "internalType": "enum artistState",
              "name": "state",
              "type": "uint8"
            },
            {
              "internalType": "address",
              "name": "EA",
              "type": "address"
            },
            {
              "internalType": "address",
              "name": "thisContract",
              "type": "address"
            },
            {
              "internalType": "bytes32",
              "name": "hash",
              "type": "bytes32"
            },
            {
              "internalType": "bool",
              "name": "result",
              "type": "bool"
            }
          ],
          "internalType": "struct ArtistReq[]",
          "name": "",
          "type": "tuple[]"
        }
      ],
      "stateMutability": "view",
      "type": "function"
    },
    {
      "inputs": [
        {
          "internalType": "address",
          "name": "artist",
          "type": "address"
        }
      ],
      "name": "getChildContractsObtained",
      "outputs": [
        {
          "components": [
            {
              "internalType": "address",
              "name": "childOwner",
              "type": "address"
            },
            {
              "internalType": "address",
              "name": "childAddress",
              "type": "address"
            },
            {
              "internalType": "address",
              "name": "parentArtist",
              "type": "address"
            },
            {
              "internalType": "address",
              "name": "parentContract",
              "type": "address"
            }
          ],
          "internalType": "struct Child[]",
          "name": "",
          "type": "tuple[]"
        }
      ],
      "stateMutability": "view",
      "type": "function"
    },
    {
      "inputs": [
        {
          "internalType": "address",
          "name": "artist",
          "type": "address"
        }
      ],
      "name": "getChildContractsGiven",
      "outputs": [
        {
          "components": [
            {
              "internalType": "address",
              "name": "childOwner",
              "type": "address"
            },
            {
              "internalType": "address",
              "name": "childAddress",
              "type": "address"
            },
            {
              "internalType": "address",
              "name": "parentArtist",
              "type": "address"
            },
            {
              "internalType": "address",
              "name": "parentContract",
              "type": "address"
            }
          ],
          "internalType": "struct Child[]",
          "name": "",
          "type": "tuple[]"
        }
      ],
      "stateMutability": "view",
      "type": "function"
    },
    {
      "inputs": [
        {
          "internalType": "address",
          "name": "artist",
          "type": "address"
        },
        {
          "internalType": "address",
          "name": "contractAddress",
          "type": "address"
        },
        {
          "internalType": "address",
          "name": "owner",
          "type": "address"
        }
      ],
      "name": "RegisteredReqEvent",
      "outputs": [],
      "stateMutability": "nonpayable",
      "type": "function"
    },
    {
      "inputs": [
        {
          "internalType": "address",
          "name": "artist",
          "type": "address"
        },
        {
          "internalType": "address",
          "name": "contractAddress",
          "type": "address"
        },
        {
          "internalType": "address",
          "name": "owner",
          "type": "address"
        }
      ],
      "name": "GrantedPermEvent",
      "outputs": [],
      "stateMutability": "nonpayable",
      "type": "function"
    },
    {
      "inputs": [
        {
          "internalType": "address",
          "name": "artist",
          "type": "address"
        },
        {
          "internalType": "address",
          "name": "contractAddress",
          "type": "address"
        },
        {
          "internalType": "address",
          "name": "owner",
          "type": "address"
        }
      ],
      "name": "DeniedPermEvent",
      "outputs": [],
      "stateMutability": "nonpayable",
      "type": "function"
    },
    {
      "inputs": [
        {
          "internalType": "address",
          "name": "contractAddress",
          "type": "address"
        },
        {
          "internalType": "address",
          "name": "owner",
          "type": "address"
        }
      ],
      "name": "addFreezedContracts",
      "outputs": [],
      "stateMutability": "nonpayable",
      "type": "function"
    },
    {
      "inputs": [],
      "name": "getFreezedContracts",
      "outputs": [
        {
          "internalType": "address[]",
          "name": "",
          "type": "address[]"
        }
      ],
      "stateMutability": "view",
      "type": "function"
    },
    {
      "inputs": [
        {
          "internalType": "address",
          "name": "artist",
          "type": "address"
        }
      ],
      "name": "getArtistFreezedContracts",
      "outputs": [
        {
          "internalType": "address[]",
          "name": "",
          "type": "address[]"
        }
      ],
      "stateMutability": "view",
      "type": "function"
    }
  ],
  "bytecode": "0x608060405234801561001057600080fd5b506150b9806100206000396000f3fe60806040523480156200001157600080fd5b5060043610620001305760003560e01c80636888cff211620000b157806396aebbad116200007b57806396aebbad146200032f578063ac0b23ad146200034f578063b67f34e61462000371578063bb14f19314620003a7578063c3a2a93a14620003dd5762000130565b80636888cff2146200029757806369714a1414620002cd578063766ef3e714620003035780639204fd3c146200030f5762000130565b806318f80bb911620000ff57806318f80bb914620001e157806319790a7e146200020157806339980cfa14620002215780633f77dd9d14620002575780633ff9e83f14620002775762000130565b80630609b7fd1462000135578063143914e8146200015557806317fa3c99146200017557806318b5c53414620001ab575b600080fd5b6200015360048036038101906200014d919062002166565b620003ff565b005b6200017360048036038101906200016d919062002166565b620005bb565b005b6200019360048036038101906200018d9190620021c2565b620005fd565b604051620001a29190620023ec565b60405180910390f35b620001c96004803603810190620001c39190620021c2565b620007af565b604051620001d89190620023ec565b60405180910390f35b620001ff6004803603810190620001f9919062002572565b62000961565b005b6200021f6004803603810190620002199190620026ed565b62000c3b565b005b6200023f6004803603810190620002399190620021c2565b62000dfe565b6040516200024e919062002806565b60405180910390f35b6200027560048036038101906200026f919062002865565b62000ecd565b005b6200029560048036038101906200028f919062002166565b6200136c565b005b620002b56004803603810190620002af9190620021c2565b6200164a565b604051620002c49190620028fe565b60405180910390f35b620002eb6004803603810190620002e59190620021c2565b620016a0565b604051620002fa919062002a35565b60405180910390f35b6200030d62001898565b005b6200032d6004803603810190620003279190620026ed565b620019d0565b005b6200034d600480360381019062000347919062002a59565b62001b93565b005b6200035962001cea565b60405162000368919062002806565b60405180910390f35b6200038f6004803603810190620003899190620021c2565b62001d7a565b6040516200039e919062002a35565b60405180910390f35b620003c56004803603810190620003bf9190620021c2565b62001f72565b604051620003d4919062002806565b60405180910390f35b620003e762002041565b604051620003f6919062002806565b60405180910390f35b6000838383604051602001620004189392919062002af0565b6040516020818303038152906040528051906020012090506003600760008473ffffffffffffffffffffffffffffffffffffffff1673ffffffffffffffffffffffffffffffffffffffff16815260200190815260200160002060096000848152602001908152602001600020548154811062000499576200049862002b33565b5b906000526020600020906004020160000160006101000a81548160ff02191690836003811115620004cf57620004ce62002220565b5b02179055506003600860008673ffffffffffffffffffffffffffffffffffffffff1673ffffffffffffffffffffffffffffffffffffffff168152602001908152602001600020600a600084815260200190815260200160002054815481106200053d576200053c62002b33565b5b906000526020600020906004020160000160006101000a81548160ff0219169083600381111562000573576200057262002220565b5b02179055507f953cb4783cd5322bf15c0f2577e860930d47665ef24ccb64d27669e92077ecf6848484604051620005ad9392919062002bfa565b60405180910390a150505050565b7ffe85a440eeb955db02cb6a979383619bf804fb3a73ecadfc54b024a40294a12a838383604051620005f09392919062002cc2565b60405180910390a1505050565b6060600860008373ffffffffffffffffffffffffffffffffffffffff1673ffffffffffffffffffffffffffffffffffffffff168152602001908152602001600020805480602002602001604051908101604052809291908181526020016000905b82821015620007a457838290600052602060002090600402016040518060a00160405290816000820160009054906101000a900460ff166003811115620006aa57620006a962002220565b5b6003811115620006bf57620006be62002220565b5b81526020016000820160019054906101000a900473ffffffffffffffffffffffffffffffffffffffff1673ffffffffffffffffffffffffffffffffffffffff1673ffffffffffffffffffffffffffffffffffffffff1681526020016001820160009054906101000a900473ffffffffffffffffffffffffffffffffffffffff1673ffffffffffffffffffffffffffffffffffffffff1673ffffffffffffffffffffffffffffffffffffffff168152602001600282015481526020016003820160009054906101000a900460ff161515151581525050815260200190600101906200065e565b505050509050919050565b6060600760008373ffffffffffffffffffffffffffffffffffffffff1673ffffffffffffffffffffffffffffffffffffffff168152602001908152602001600020805480602002602001604051908101604052809291908181526020016000905b828210156200095657838290600052602060002090600402016040518060a00160405290816000820160009054906101000a900460ff1660038111156200085c576200085b62002220565b5b600381111562000871576200087062002220565b5b81526020016000820160019054906101000a900473ffffffffffffffffffffffffffffffffffffffff1673ffffffffffffffffffffffffffffffffffffffff1673ffffffffffffffffffffffffffffffffffffffff1681526020016001820160009054906101000a900473ffffffffffffffffffffffffffffffffffffffff1673ffffffffffffffffffffffffffffffffffffffff1673ffffffffffffffffffffffffffffffffffffffff168152602001600282015481526020016003820160009054906101000a900460ff1615151515815250508152602001906001019062000810565b505050509050919050565b600260003373ffffffffffffffffffffffffffffffffffffffff1673ffffffffffffffffffffffffffffffffffffffff16815260200190815260200160002060009054906101000a900460ff16620009f0576040517f08c379a0000000000000000000000000000000000000000000000000000000008152600401620009e79062002d64565b60405180910390fd5b600a60ff16600360003373ffffffffffffffffffffffffffffffffffffffff1673ffffffffffffffffffffffffffffffffffffffff168152602001908152602001600020805490501062000a7b576040517f08c379a000000000000000000000000000000000000000000000000000000000815260040162000a729062002dfc565b60405180910390fd5b6000338260405160200162000a91919062002e97565b604051602081830303815290604052805190602001203060405162000ab690620020d1565b62000ac49392919062002ec1565b604051809103906000f08015801562000ae1573d6000803e3d6000fd5b509050600360003373ffffffffffffffffffffffffffffffffffffffff1673ffffffffffffffffffffffffffffffffffffffff168152602001908152602001600020819080600181540180825580915050600190039060005260206000200160009091909190916101000a81548173ffffffffffffffffffffffffffffffffffffffff021916908373ffffffffffffffffffffffffffffffffffffffff1602179055506000819080600181540180825580915050600190039060005260206000200160009091909190916101000a81548173ffffffffffffffffffffffffffffffffffffffff021916908373ffffffffffffffffffffffffffffffffffffffff1602179055503373ffffffffffffffffffffffffffffffffffffffff167fe9c49900341feac9a9b55ba8ebbd191df0c23420283b242961485e20862d282f8260405162000c2f919062002f74565b60405180910390a25050565b600760008473ffffffffffffffffffffffffffffffffffffffff1673ffffffffffffffffffffffffffffffffffffffff16815260200190815260200160002082908060018154018082558091505060019003906000526020600020906004020160009091909190915060008201518160000160006101000a81548160ff0219169083600381111562000cd25762000cd162002220565b5b021790555060208201518160000160016101000a81548173ffffffffffffffffffffffffffffffffffffffff021916908373ffffffffffffffffffffffffffffffffffffffff16021790555060408201518160010160006101000a81548173ffffffffffffffffffffffffffffffffffffffff021916908373ffffffffffffffffffffffffffffffffffffffff1602179055506060820151816002015560808201518160030160006101000a81548160ff02191690831515021790555050506001600760008573ffffffffffffffffffffffffffffffffffffffff1673ffffffffffffffffffffffffffffffffffffffff1681526020019081526020016000208054905062000de2919062002fd5565b6009600083815260200190815260200160002081905550505050565b6060600360008373ffffffffffffffffffffffffffffffffffffffff1673ffffffffffffffffffffffffffffffffffffffff16815260200190815260200160002080548060200260200160405190810160405280929190818152602001828054801562000ec157602002820191906000526020600020905b8160009054906101000a900473ffffffffffffffffffffffffffffffffffffffff1673ffffffffffffffffffffffffffffffffffffffff168152602001906001019080831162000e76575b50505050509050919050565b6000858585858560405162000ee290620020df565b62000ef295949392919062003021565b604051809103906000f08015801562000f0f573d6000803e3d6000fd5b509050600560008773ffffffffffffffffffffffffffffffffffffffff1673ffffffffffffffffffffffffffffffffffffffff16815260200190815260200160002060405180608001604052808873ffffffffffffffffffffffffffffffffffffffff1681526020018373ffffffffffffffffffffffffffffffffffffffff1681526020018773ffffffffffffffffffffffffffffffffffffffff1681526020018573ffffffffffffffffffffffffffffffffffffffff16815250908060018154018082558091505060019003906000526020600020906004020160009091909190915060008201518160000160006101000a81548173ffffffffffffffffffffffffffffffffffffffff021916908373ffffffffffffffffffffffffffffffffffffffff16021790555060208201518160010160006101000a81548173ffffffffffffffffffffffffffffffffffffffff021916908373ffffffffffffffffffffffffffffffffffffffff16021790555060408201518160020160006101000a81548173ffffffffffffffffffffffffffffffffffffffff021916908373ffffffffffffffffffffffffffffffffffffffff16021790555060608201518160030160006101000a81548173ffffffffffffffffffffffffffffffffffffffff021916908373ffffffffffffffffffffffffffffffffffffffff1602179055505050600660008673ffffffffffffffffffffffffffffffffffffffff1673ffffffffffffffffffffffffffffffffffffffff16815260200190815260200160002060405180608001604052808873ffffffffffffffffffffffffffffffffffffffff1681526020018373ffffffffffffffffffffffffffffffffffffffff1681526020018773ffffffffffffffffffffffffffffffffffffffff1681526020018573ffffffffffffffffffffffffffffffffffffffff16815250908060018154018082558091505060019003906000526020600020906004020160009091909190915060008201518160000160006101000a81548173ffffffffffffffffffffffffffffffffffffffff021916908373ffffffffffffffffffffffffffffffffffffffff16021790555060208201518160010160006101000a81548173ffffffffffffffffffffffffffffffffffffffff021916908373ffffffffffffffffffffffffffffffffffffffff16021790555060408201518160020160006101000a81548173ffffffffffffffffffffffffffffffffffffffff021916908373ffffffffffffffffffffffffffffffffffffffff16021790555060608201518160030160006101000a81548173ffffffffffffffffffffffffffffffffffffffff021916908373ffffffffffffffffffffffffffffffffffffffff16021790555050508573ffffffffffffffffffffffffffffffffffffffff167f35f84ed5e450eee1d89b1d166b3baab3794b7e3ac503420a5867e646bea154608287866040516200135c939291906200311a565b60405180910390a2505050505050565b6000838383604051602001620013859392919062002af0565b6040516020818303038152906040528051906020012090506001600760008473ffffffffffffffffffffffffffffffffffffffff1673ffffffffffffffffffffffffffffffffffffffff16815260200190815260200160002060096000848152602001908152602001600020548154811062001406576200140562002b33565b5b906000526020600020906004020160030160006101000a81548160ff0219169083151502179055506002600760008473ffffffffffffffffffffffffffffffffffffffff1673ffffffffffffffffffffffffffffffffffffffff16815260200190815260200160002060096000848152602001908152602001600020548154811062001497576200149662002b33565b5b906000526020600020906004020160000160006101000a81548160ff02191690836003811115620014cd57620014cc62002220565b5b02179055506001600860008673ffffffffffffffffffffffffffffffffffffffff1673ffffffffffffffffffffffffffffffffffffffff168152602001908152602001600020600a600084815260200190815260200160002054815481106200153b576200153a62002b33565b5b906000526020600020906004020160030160006101000a81548160ff0219169083151502179055506002600860008673ffffffffffffffffffffffffffffffffffffffff1673ffffffffffffffffffffffffffffffffffffffff168152602001908152602001600020600a60008481526020019081526020016000205481548110620015cc57620015cb62002b33565b5b906000526020600020906004020160000160006101000a81548160ff0219169083600381111562001602576200160162002220565b5b02179055507f628c4880b53f1496025c5f723fc821f89099460e355ce3c0931359aac587cf2c8484846040516200163c93929190620031e2565b60405180910390a150505050565b6000600260008373ffffffffffffffffffffffffffffffffffffffff1673ffffffffffffffffffffffffffffffffffffffff16815260200190815260200160002060009054906101000a900460ff169050919050565b6060600660008373ffffffffffffffffffffffffffffffffffffffff1673ffffffffffffffffffffffffffffffffffffffff168152602001908152602001600020805480602002602001604051908101604052809291908181526020016000905b828210156200188d57838290600052602060002090600402016040518060800160405290816000820160009054906101000a900473ffffffffffffffffffffffffffffffffffffffff1673ffffffffffffffffffffffffffffffffffffffff1673ffffffffffffffffffffffffffffffffffffffff1681526020016001820160009054906101000a900473ffffffffffffffffffffffffffffffffffffffff1673ffffffffffffffffffffffffffffffffffffffff1673ffffffffffffffffffffffffffffffffffffffff1681526020016002820160009054906101000a900473ffffffffffffffffffffffffffffffffffffffff1673ffffffffffffffffffffffffffffffffffffffff1673ffffffffffffffffffffffffffffffffffffffff1681526020016003820160009054906101000a900473ffffffffffffffffffffffffffffffffffffffff1673ffffffffffffffffffffffffffffffffffffffff1673ffffffffffffffffffffffffffffffffffffffff16815250508152602001906001019062001701565b505050509050919050565b600260003373ffffffffffffffffffffffffffffffffffffffff1673ffffffffffffffffffffffffffffffffffffffff16815260200190815260200160002060009054906101000a900460ff161562001928576040517f08c379a00000000000000000000000000000000000000000000000000000000081526004016200191f9062003284565b60405180910390fd5b6001600260003373ffffffffffffffffffffffffffffffffffffffff1673ffffffffffffffffffffffffffffffffffffffff16815260200190815260200160002060006101000a81548160ff0219169083151502179055503373ffffffffffffffffffffffffffffffffffffffff167f2ba4761022e57f025b35d7b95731d12707ded82df74e5aa84c26088acf79bb31604051620019c6906200331c565b60405180910390a2565b600860008473ffffffffffffffffffffffffffffffffffffffff1673ffffffffffffffffffffffffffffffffffffffff16815260200190815260200160002082908060018154018082558091505060019003906000526020600020906004020160009091909190915060008201518160000160006101000a81548160ff0219169083600381111562001a675762001a6662002220565b5b021790555060208201518160000160016101000a81548173ffffffffffffffffffffffffffffffffffffffff021916908373ffffffffffffffffffffffffffffffffffffffff16021790555060408201518160010160006101000a81548173ffffffffffffffffffffffffffffffffffffffff021916908373ffffffffffffffffffffffffffffffffffffffff1602179055506060820151816002015560808201518160030160006101000a81548160ff02191690831515021790555050506001600860008573ffffffffffffffffffffffffffffffffffffffff1673ffffffffffffffffffffffffffffffffffffffff1681526020019081526020016000208054905062001b77919062002fd5565b600a600083815260200190815260200160002081905550505050565b6001829080600181540180825580915050600190039060005260206000200160009091909190916101000a81548173ffffffffffffffffffffffffffffffffffffffff021916908373ffffffffffffffffffffffffffffffffffffffff160217905550600460008273ffffffffffffffffffffffffffffffffffffffff1673ffffffffffffffffffffffffffffffffffffffff168152602001908152602001600020829080600181540180825580915050600190039060005260206000200160009091909190916101000a81548173ffffffffffffffffffffffffffffffffffffffff021916908373ffffffffffffffffffffffffffffffffffffffff1602179055508073ffffffffffffffffffffffffffffffffffffffff167f8c6a18ab335626f1347dafba8a4583f9f7a0ca277339118a93194718b4eb3ae78360405162001cde9190620033b4565b60405180910390a25050565b6060600180548060200260200160405190810160405280929190818152602001828054801562001d7057602002820191906000526020600020905b8160009054906101000a900473ffffffffffffffffffffffffffffffffffffffff1673ffffffffffffffffffffffffffffffffffffffff168152602001906001019080831162001d25575b5050505050905090565b6060600560008373ffffffffffffffffffffffffffffffffffffffff1673ffffffffffffffffffffffffffffffffffffffff168152602001908152602001600020805480602002602001604051908101604052809291908181526020016000905b8282101562001f6757838290600052602060002090600402016040518060800160405290816000820160009054906101000a900473ffffffffffffffffffffffffffffffffffffffff1673ffffffffffffffffffffffffffffffffffffffff1673ffffffffffffffffffffffffffffffffffffffff1681526020016001820160009054906101000a900473ffffffffffffffffffffffffffffffffffffffff1673ffffffffffffffffffffffffffffffffffffffff1673ffffffffffffffffffffffffffffffffffffffff1681526020016002820160009054906101000a900473ffffffffffffffffffffffffffffffffffffffff1673ffffffffffffffffffffffffffffffffffffffff1673ffffffffffffffffffffffffffffffffffffffff1681526020016003820160009054906101000a900473ffffffffffffffffffffffffffffffffffffffff1673ffffffffffffffffffffffffffffffffffffffff1673ffffffffffffffffffffffffffffffffffffffff16815250508152602001906001019062001ddb565b505050509050919050565b6060600460008373ffffffffffffffffffffffffffffffffffffffff1673ffffffffffffffffffffffffffffffffffffffff1681526020019081526020016000208054806020026020016040519081016040528092919081815260200182805480156200203557602002820191906000526020600020905b8160009054906101000a900473ffffffffffffffffffffffffffffffffffffffff1673ffffffffffffffffffffffffffffffffffffffff168152602001906001019080831162001fea575b50505050509050919050565b60606000805480602002602001604051908101604052809291908181526020018280548015620020c757602002820191906000526020600020905b8160009054906101000a900473ffffffffffffffffffffffffffffffffffffffff1673ffffffffffffffffffffffffffffffffffffffff16815260200190600101908083116200207c575b5050505050905090565b61176680620033e783390190565b6105378062004b4d83390190565b6000604051905090565b600080fd5b600080fd5b600073ffffffffffffffffffffffffffffffffffffffff82169050919050565b60006200212e8262002101565b9050919050565b620021408162002121565b81146200214c57600080fd5b50565b600081359050620021608162002135565b92915050565b600080600060608486031215620021825762002181620020f7565b5b600062002192868287016200214f565b9350506020620021a5868287016200214f565b9250506040620021b8868287016200214f565b9150509250925092565b600060208284031215620021db57620021da620020f7565b5b6000620021eb848285016200214f565b91505092915050565b600081519050919050565b600082825260208201905092915050565b6000819050602082019050919050565b7f4e487b7100000000000000000000000000000000000000000000000000000000600052602160045260246000fd5b6004811062002263576200226262002220565b5b50565b600081905062002276826200224f565b919050565b6000620022888262002266565b9050919050565b6200229a816200227b565b82525050565b620022ab8162002121565b82525050565b6000819050919050565b620022c681620022b1565b82525050565b60008115159050919050565b620022e381620022cc565b82525050565b60a0820160008201516200230160008501826200228f565b506020820151620023166020850182620022a0565b5060408201516200232b6040850182620022a0565b506060820151620023406060850182620022bb565b506080820151620023556080850182620022d8565b50505050565b6000620023698383620022e9565b60a08301905092915050565b6000602082019050919050565b60006200238f82620021f4565b6200239b8185620021ff565b9350620023a88362002210565b8060005b83811015620023df578151620023c388826200235b565b9750620023d08362002375565b925050600181019050620023ac565b5085935050505092915050565b6000602082019050818103600083015262002408818462002382565b905092915050565b600080fd5b600080fd5b6000601f19601f8301169050919050565b7f4e487b7100000000000000000000000000000000000000000000000000000000600052604160045260246000fd5b62002465826200241a565b810181811067ffffffffffffffff821117156200248757620024866200242b565b5b80604052505050565b60006200249c620020ed565b9050620024aa82826200245a565b919050565b600067ffffffffffffffff821115620024cd57620024cc6200242b565b5b620024d8826200241a565b9050602081019050919050565b82818337600083830152505050565b60006200250b6200250584620024af565b62002490565b9050828152602081018484840111156200252a576200252962002415565b5b62002537848285620024e5565b509392505050565b600082601f83011262002557576200255662002410565b5b813562002569848260208601620024f4565b91505092915050565b6000602082840312156200258b576200258a620020f7565b5b600082013567ffffffffffffffff811115620025ac57620025ab620020fc565b5b620025ba848285016200253f565b91505092915050565b600080fd5b60048110620025d657600080fd5b50565b600081359050620025ea81620025c8565b92915050565b620025fb81620022b1565b81146200260757600080fd5b50565b6000813590506200261b81620025f0565b92915050565b6200262c81620022cc565b81146200263857600080fd5b50565b6000813590506200264c8162002621565b92915050565b600060a082840312156200266b576200266a620025c3565b5b6200267760a062002490565b905060006200268984828501620025d9565b60008301525060206200269f848285016200214f565b6020830152506040620026b5848285016200214f565b6040830152506060620026cb848285016200260a565b6060830152506080620026e1848285016200263b565b60808301525092915050565b600080600060e08486031215620027095762002708620020f7565b5b600062002719868287016200214f565b93505060206200272c8682870162002652565b92505060c06200273f868287016200260a565b9150509250925092565b600081519050919050565b600082825260208201905092915050565b6000819050602082019050919050565b6000620027838383620022a0565b60208301905092915050565b6000602082019050919050565b6000620027a98262002749565b620027b5818562002754565b9350620027c28362002765565b8060005b83811015620027f9578151620027dd888262002775565b9750620027ea836200278f565b925050600181019050620027c6565b5085935050505092915050565b600060208201905081810360008301526200282281846200279c565b905092915050565b6000819050919050565b6200283f816200282a565b81146200284b57600080fd5b50565b6000813590506200285f8162002834565b92915050565b600080600080600060a08688031215620028845762002883620020f7565b5b600062002894888289016200214f565b9550506020620028a7888289016200214f565b9450506040620028ba888289016200260a565b9350506060620028cd888289016200214f565b9250506080620028e0888289016200284e565b9150509295509295909350565b620028f881620022cc565b82525050565b6000602082019050620029156000830184620028ed565b92915050565b600081519050919050565b600082825260208201905092915050565b6000819050602082019050919050565b6080820160008201516200295f6000850182620022a0565b506020820151620029746020850182620022a0565b506040820151620029896040850182620022a0565b5060608201516200299e6060850182620022a0565b50505050565b6000620029b2838362002947565b60808301905092915050565b6000602082019050919050565b6000620029d8826200291b565b620029e4818562002926565b9350620029f18362002937565b8060005b8381101562002a2857815162002a0c8882620029a4565b975062002a1983620029be565b925050600181019050620029f5565b5085935050505092915050565b6000602082019050818103600083015262002a518184620029cb565b905092915050565b6000806040838503121562002a735762002a72620020f7565b5b600062002a83858286016200214f565b925050602062002a96858286016200214f565b9150509250929050565b60008160601b9050919050565b600062002aba8262002aa0565b9050919050565b600062002ace8262002aad565b9050919050565b62002aea62002ae48262002121565b62002ac1565b82525050565b600062002afe828662002ad5565b60148201915062002b10828562002ad5565b60148201915062002b22828462002ad5565b601482019150819050949350505050565b7f4e487b7100000000000000000000000000000000000000000000000000000000600052603260045260246000fd5b600082825260208201905092915050565b7f5065726d6573736f206e656761746f202873656e646572416464726573732c2060008201527f636f6e7472616374416464726573732c206f776e657229000000000000000000602082015250565b600062002bd160378362002b62565b915062002bde8262002b73565b604082019050919050565b62002bf48162002121565b82525050565b6000608082019050818103600083015262002c158162002bc2565b905062002c26602083018662002be9565b62002c35604083018562002be9565b62002c44606083018462002be9565b949350505050565b7f526963686965737461207269636576757461202873656e64657241646472657360008201527f732c20636f6e7472616374416464726573732c206f776e657229000000000000602082015250565b600062002caa603a8362002b62565b915062002cb78262002c4c565b604082019050919050565b6000608082019050818103600083015262002cdd8162002c9b565b905062002cee602083018662002be9565b62002cfd604083018562002be9565b62002d0c606083018462002be9565b949350505050565b7f41727469737461206e6f6e2070726573656e746520696e206c69737461000000600082015250565b600062002d4c601d8362002b62565b915062002d598262002d14565b602082019050919050565b6000602082019050818103600083015262002d7f8162002d3d565b9050919050565b7f4e6f6e20706f73736962696c652063726561726520756e20636f6e747261747460008201527f6f2c206c696d697465207261676769756e746f00000000000000000000000000602082015250565b600062002de460338362002b62565b915062002df18262002d86565b604082019050919050565b6000602082019050818103600083015262002e178162002dd5565b9050919050565b600081519050919050565b600081905092915050565b60005b8381101562002e5457808201518184015260208101905062002e37565b60008484015250505050565b600062002e6d8262002e1e565b62002e79818562002e29565b935062002e8b81856020860162002e34565b80840191505092915050565b600062002ea5828462002e60565b915081905092915050565b62002ebb81620022b1565b82525050565b600060608201905062002ed8600083018662002be9565b62002ee7602083018562002eb0565b62002ef6604083018462002be9565b949350505050565b7f436f6e74726174746f20707562626c696361746f3a20286f776e65722c20636f60008201527f6e74726163744164647265737329000000000000000000000000000000000000602082015250565b600062002f5c602e8362002b62565b915062002f698262002efe565b604082019050919050565b6000604082019050818103600083015262002f8f8162002f4d565b905062002fa0602083018462002be9565b92915050565b7f4e487b7100000000000000000000000000000000000000000000000000000000600052601160045260246000fd5b600062002fe2826200282a565b915062002fef836200282a565b92508282039050818111156200300a576200300962002fa6565b5b92915050565b6200301b816200282a565b82525050565b600060a08201905062003038600083018862002be9565b62003047602083018762002be9565b62003056604083018662002eb0565b62003065606083018562002be9565b62003074608083018462003010565b9695505050505050565b7f436f6e74726174746f206669676c696f20707562626c696361746f3a2028636860008201527f696c644f776e65722c206368696c64416464726573732c20706172656e74417260208201527f746973742c20706172656e74436f6e7472616374290000000000000000000000604082015250565b60006200310260558362002b62565b91506200310f826200307e565b606082019050919050565b600060808201905081810360008301526200313581620030f3565b905062003146602083018662002be9565b62003155604083018562002be9565b62003164606083018462002be9565b949350505050565b7f5065726d6573736f20636f6e636573736f202873656e6465724164647265737360008201527f2c20636f6e7472616374416464726573732c206f776e65722900000000000000602082015250565b6000620031ca60398362002b62565b9150620031d7826200316c565b604082019050919050565b60006080820190508181036000830152620031fd81620031bb565b90506200320e602083018662002be9565b6200321d604083018562002be9565b6200322c606083018462002be9565b949350505050565b7f417274697374612070726573656e746520696e206c6973746100000000000000600082015250565b60006200326c60198362002b62565b9150620032798262003234565b602082019050919050565b600060208201905081810360008301526200329f816200325d565b9050919050565b7f417274697374612061676769756e746f20696e206c697374613a20286172746960008201527f7374416464726573732900000000000000000000000000000000000000000000602082015250565b600062003304602a8362002b62565b91506200331182620032a6565b604082019050919050565b600060208201905081810360008301526200333781620032f5565b9050919050565b7f436f6e74726174746f20636f6e67656c61746f20286f776e65722c20636f6e7460008201527f7261637441646472657373290000000000000000000000000000000000000000602082015250565b60006200339c602c8362002b62565b9150620033a9826200333e565b604082019050919050565b60006040820190508181036000830152620033cf816200338d565b9050620033e0602083018462002be9565b9291505056fe60806040523480156200001157600080fd5b50604051620017663803806200176683398181016040528101906200003791906200021c565b80600560006101000a81548173ffffffffffffffffffffffffffffffffffffffff021916908373ffffffffffffffffffffffffffffffffffffffff160217905550826000806101000a81548173ffffffffffffffffffffffffffffffffffffffff021916908373ffffffffffffffffffffffffffffffffffffffff16021790555082600160000160006101000a81548173ffffffffffffffffffffffffffffffffffffffff021916908373ffffffffffffffffffffffffffffffffffffffff16021790555081600180018190555030600160020160006101000a81548173ffffffffffffffffffffffffffffffffffffffff021916908373ffffffffffffffffffffffffffffffffffffffff160217905550426001600301819055506000600560146101000a81548160ff02191690831515021790555050505062000278565b600080fd5b600073ffffffffffffffffffffffffffffffffffffffff82169050919050565b6000620001a9826200017c565b9050919050565b620001bb816200019c565b8114620001c757600080fd5b50565b600081519050620001db81620001b0565b92915050565b6000819050919050565b620001f681620001e1565b81146200020257600080fd5b50565b6000815190506200021681620001eb565b92915050565b60008060006060848603121562000238576200023762000177565b5b60006200024886828701620001ca565b93505060206200025b8682870162000205565b92505060406200026e86828701620001ca565b9150509250925092565b6114de80620002886000396000f3fe608060405234801561001057600080fd5b506004361061004c5760003560e01c806311c7c7e914610051578063338cdca11461006d578063893d20e814610077578063a584a9b514610095575b600080fd5b61006b60048036038101906100669190610dea565b61009f565b005b610075610593565b005b61007f610c02565b60405161008c9190610e39565b60405180910390f35b61009d610c2b565b005b60008054906101000a900473ffffffffffffffffffffffffffffffffffffffff1673ffffffffffffffffffffffffffffffffffffffff163373ffffffffffffffffffffffffffffffffffffffff16146100f757600080fd5b6001600381111561010b5761010a610e54565b5b600660008373ffffffffffffffffffffffffffffffffffffffff1673ffffffffffffffffffffffffffffffffffffffff16815260200190815260200160002060000160009054906101000a900460ff16600381111561016d5761016c610e54565b5b146101ad576040517f08c379a00000000000000000000000000000000000000000000000000000000081526004016101a490610f06565b60405180910390fd5b81156103f1576002600660008373ffffffffffffffffffffffffffffffffffffffff1673ffffffffffffffffffffffffffffffffffffffff16815260200190815260200160002060000160006101000a81548160ff0219169083600381111561021957610218610e54565b5b021790555081600660008373ffffffffffffffffffffffffffffffffffffffff1673ffffffffffffffffffffffffffffffffffffffff16815260200190815260200160002060030160006101000a81548160ff021916908315150217905550600560009054906101000a900473ffffffffffffffffffffffffffffffffffffffff1673ffffffffffffffffffffffffffffffffffffffff16633ff9e83f823060008054906101000a900473ffffffffffffffffffffffffffffffffffffffff166040518463ffffffff1660e01b81526004016102f793929190610f26565b600060405180830381600087803b15801561031157600080fd5b505af1158015610325573d6000803e3d6000fd5b50505050600560009054906101000a900473ffffffffffffffffffffffffffffffffffffffff1673ffffffffffffffffffffffffffffffffffffffff16633f77dd9d82336001800154600160020160009054906101000a900473ffffffffffffffffffffffffffffffffffffffff166001600301546040518663ffffffff1660e01b81526004016103ba959493929190610f8f565b600060405180830381600087803b1580156103d457600080fd5b505af11580156103e8573d6000803e3d6000fd5b5050505061050e565b6003600660008373ffffffffffffffffffffffffffffffffffffffff1673ffffffffffffffffffffffffffffffffffffffff16815260200190815260200160002060000160006101000a81548160ff0219169083600381111561045757610456610e54565b5b0217905550600560009054906101000a900473ffffffffffffffffffffffffffffffffffffffff1673ffffffffffffffffffffffffffffffffffffffff16630609b7fd823060008054906101000a900473ffffffffffffffffffffffffffffffffffffffff166040518463ffffffff1660e01b81526004016104db93929190610f26565b600060405180830381600087803b1580156104f557600080fd5b505af1158015610509573d6000803e3d6000fd5b505050505b7ff7011a0f62dea6ba56883a9f1b74a4d2222d9c1c31fb61f8e911ce64fac07c09813060008054906101000a900473ffffffffffffffffffffffffffffffffffffffff166040516020016105649392919061102a565b6040516020818303038152906040528051906020012060405161058791906110b3565b60405180910390a15050565b60008054906101000a900473ffffffffffffffffffffffffffffffffffffffff1673ffffffffffffffffffffffffffffffffffffffff163373ffffffffffffffffffffffffffffffffffffffff16036105eb57600080fd5b600060038111156105ff576105fe610e54565b5b600660003373ffffffffffffffffffffffffffffffffffffffff1673ffffffffffffffffffffffffffffffffffffffff16815260200190815260200160002060000160009054906101000a900460ff16600381111561066157610660610e54565b5b146106a1576040517f08c379a000000000000000000000000000000000000000000000000000000000815260040161069890611153565b60405180910390fd5b60001515600560149054906101000a900460ff161515146106f7576040517f08c379a00000000000000000000000000000000000000000000000000000000081526004016106ee906111bf565b60405180910390fd5b6001600660003373ffffffffffffffffffffffffffffffffffffffff1673ffffffffffffffffffffffffffffffffffffffff16815260200190815260200160002060000160006101000a81548160ff0219169083600381111561075d5761075c610e54565b5b021790555033600660003373ffffffffffffffffffffffffffffffffffffffff1673ffffffffffffffffffffffffffffffffffffffff16815260200190815260200160002060000160016101000a81548173ffffffffffffffffffffffffffffffffffffffff021916908373ffffffffffffffffffffffffffffffffffffffff16021790555030600660003373ffffffffffffffffffffffffffffffffffffffff1673ffffffffffffffffffffffffffffffffffffffff16815260200190815260200160002060010160006101000a81548173ffffffffffffffffffffffffffffffffffffffff021916908373ffffffffffffffffffffffffffffffffffffffff1602179055506001800154600660003373ffffffffffffffffffffffffffffffffffffffff1673ffffffffffffffffffffffffffffffffffffffff168152602001908152602001600020600201819055506000600660003373ffffffffffffffffffffffffffffffffffffffff1673ffffffffffffffffffffffffffffffffffffffff16815260200190815260200160002060030160006101000a81548160ff0219169083151502179055506000333060008054906101000a900473ffffffffffffffffffffffffffffffffffffffff166040516020016109419392919061102a565b604051602081830303815290604052805190602001209050600560009054906101000a900473ffffffffffffffffffffffffffffffffffffffff1673ffffffffffffffffffffffffffffffffffffffff166319790a7e60008054906101000a900473ffffffffffffffffffffffffffffffffffffffff16600660003373ffffffffffffffffffffffffffffffffffffffff1673ffffffffffffffffffffffffffffffffffffffff168152602001908152602001600020846040518463ffffffff1660e01b8152600401610a16939291906113ce565b600060405180830381600087803b158015610a3057600080fd5b505af1158015610a44573d6000803e3d6000fd5b50505050600560009054906101000a900473ffffffffffffffffffffffffffffffffffffffff1673ffffffffffffffffffffffffffffffffffffffff16639204fd3c33600660003373ffffffffffffffffffffffffffffffffffffffff1673ffffffffffffffffffffffffffffffffffffffff168152602001908152602001600020846040518463ffffffff1660e01b8152600401610ae5939291906113ce565b600060405180830381600087803b158015610aff57600080fd5b505af1158015610b13573d6000803e3d6000fd5b50505050600560009054906101000a900473ffffffffffffffffffffffffffffffffffffffff1673ffffffffffffffffffffffffffffffffffffffff1663143914e8333060008054906101000a900473ffffffffffffffffffffffffffffffffffffffff166040518463ffffffff1660e01b8152600401610b9693929190610f26565b600060405180830381600087803b158015610bb057600080fd5b505af1158015610bc4573d6000803e3d6000fd5b505050507f9946568b7b40c84fb1a266ae041f129cc8ff176c698f7ee513f0f51486a6eafb81604051610bf79190611451565b60405180910390a150565b60008060009054906101000a900473ffffffffffffffffffffffffffffffffffffffff16905090565b60008054906101000a900473ffffffffffffffffffffffffffffffffffffffff1673ffffffffffffffffffffffffffffffffffffffff163373ffffffffffffffffffffffffffffffffffffffff1614610c8357600080fd5b60001515600560149054906101000a900460ff16151514610ca357600080fd5b6001600560146101000a81548160ff021916908315150217905550600560009054906101000a900473ffffffffffffffffffffffffffffffffffffffff1673ffffffffffffffffffffffffffffffffffffffff166396aebbad30336040518363ffffffff1660e01b8152600401610d1b92919061147f565b600060405180830381600087803b158015610d3557600080fd5b505af1158015610d49573d6000803e3d6000fd5b50505050565b600080fd5b60008115159050919050565b610d6981610d54565b8114610d7457600080fd5b50565b600081359050610d8681610d60565b92915050565b600073ffffffffffffffffffffffffffffffffffffffff82169050919050565b6000610db782610d8c565b9050919050565b610dc781610dac565b8114610dd257600080fd5b50565b600081359050610de481610dbe565b92915050565b60008060408385031215610e0157610e00610d4f565b5b6000610e0f85828601610d77565b9250506020610e2085828601610dd5565b9150509250929050565b610e3381610dac565b82525050565b6000602082019050610e4e6000830184610e2a565b92915050565b7f4e487b7100000000000000000000000000000000000000000000000000000000600052602160045260246000fd5b600082825260208201905092915050565b7f526963686965737461206e6f6e20696e2061747465736120646920726973706f60008201527f7374610000000000000000000000000000000000000000000000000000000000602082015250565b6000610ef0602383610e83565b9150610efb82610e94565b604082019050919050565b60006020820190508181036000830152610f1f81610ee3565b9050919050565b6000606082019050610f3b6000830186610e2a565b610f486020830185610e2a565b610f556040830184610e2a565b949350505050565b6000819050919050565b610f7081610f5d565b82525050565b6000819050919050565b610f8981610f76565b82525050565b600060a082019050610fa46000830188610e2a565b610fb16020830187610e2a565b610fbe6040830186610f67565b610fcb6060830185610e2a565b610fd86080830184610f80565b9695505050505050565b60008160601b9050919050565b6000610ffa82610fe2565b9050919050565b600061100c82610fef565b9050919050565b61102461101f82610dac565b611001565b82525050565b60006110368286611013565b6014820191506110468285611013565b6014820191506110568284611013565b601482019150819050949350505050565b7f526973706f73746120696e76696174613a200000000000000000000000000000600082015250565b600061109d601283610e83565b91506110a882611067565b602082019050919050565b600060408201905081810360008301526110cc81611090565b90506110db6020830184610f67565b92915050565b7f416d6d6573736120756e6120736f6c612072696368696573746120706572207560008201527f74656e7465000000000000000000000000000000000000000000000000000000602082015250565b600061113d602583610e83565b9150611148826110e1565b604082019050919050565b6000602082019050818103600083015261116c81611130565b9050919050565b7f436f6e74726174746f20636f6e67656c61746f00000000000000000000000000600082015250565b60006111a9601383610e83565b91506111b482611173565b602082019050919050565b600060208201905081810360008301526111d88161119c565b9050919050565b60008160001c9050919050565b600060ff82169050919050565b600061120c611207836111df565b6111ec565b9050919050565b6004811061122457611223610e54565b5b50565b600081905061123582611213565b919050565b600061124582611227565b9050919050565b6112558161123a565b82525050565b60008160081c9050919050565b600073ffffffffffffffffffffffffffffffffffffffff82169050919050565b600061129b6112968361125b565b611268565b9050919050565b6112ab81610dac565b82525050565b60006112c46112bf836111df565b611268565b9050919050565b6000819050919050565b60006112e86112e3836111df565b6112cb565b9050919050565b6112f881610f5d565b82525050565b600060ff82169050919050565b600061131e611319836111df565b6112fe565b9050919050565b61132e81610d54565b82525050565b60a082016000808301549050611349816111f9565b611356600086018261124c565b5061136081611288565b61136d60208601826112a2565b506001830154905061137e816112b1565b61138b60408601826112a2565b506002830154905061139c816112d5565b6113a960608601826112ef565b50600383015490506113ba8161130b565b6113c76080860182611325565b5050505050565b600060e0820190506113e36000830186610e2a565b6113f06020830185611334565b6113fd60c0830184610f67565b949350505050565b7f52696368696573746120726567697374726174613a2000000000000000000000600082015250565b600061143b601683610e83565b915061144682611405565b602082019050919050565b6000604082019050818103600083015261146a8161142e565b90506114796020830184610f67565b92915050565b60006040820190506114946000830185610e2a565b6114a16020830184610e2a565b939250505056fea2646970667358221220f4a2692e44633bb41cab973aae6226bb45bf8041050d34d192105db0aee8e26e64736f6c63430008120033608060405234801561001057600080fd5b506040516105373803806105378339818101604052810190610032919061028e565b846000806101000a81548173ffffffffffffffffffffffffffffffffffffffff021916908373ffffffffffffffffffffffffffffffffffffffff16021790555084600160000160006101000a81548173ffffffffffffffffffffffffffffffffffffffff021916908373ffffffffffffffffffffffffffffffffffffffff16021790555082600180018190555030600160020160006101000a81548173ffffffffffffffffffffffffffffffffffffffff021916908373ffffffffffffffffffffffffffffffffffffffff1602179055504260016003018190555083600160040160000160006101000a81548173ffffffffffffffffffffffffffffffffffffffff021916908373ffffffffffffffffffffffffffffffffffffffff1602179055508260016004016001018190555081600160040160020160006101000a81548173ffffffffffffffffffffffffffffffffffffffff021916908373ffffffffffffffffffffffffffffffffffffffff160217905550806001600401600301819055505050505050610309565b600080fd5b600073ffffffffffffffffffffffffffffffffffffffff82169050919050565b60006101ef826101c4565b9050919050565b6101ff816101e4565b811461020a57600080fd5b50565b60008151905061021c816101f6565b92915050565b6000819050919050565b61023581610222565b811461024057600080fd5b50565b6000815190506102528161022c565b92915050565b6000819050919050565b61026b81610258565b811461027657600080fd5b50565b60008151905061028881610262565b92915050565b600080600080600060a086880312156102aa576102a96101bf565b5b60006102b88882890161020d565b95505060206102c98882890161020d565b94505060406102da88828901610243565b93505060606102eb8882890161020d565b92505060806102fc88828901610279565b9150509295509295909350565b61021f806103186000396000f3fe608060405234801561001057600080fd5b506004361061002b5760003560e01c806362875b6d14610030575b600080fd5b61004a60048036038101906100459190610122565b61004c565b005b60008054906101000a900473ffffffffffffffffffffffffffffffffffffffff1673ffffffffffffffffffffffffffffffffffffffff163373ffffffffffffffffffffffffffffffffffffffff16146100a457600080fd5b8060018001819055507f5cceeacd6ab6f860214b6b178fc3923c5078ad8ded9ed9e4bbf1e5d4399bf3ab816040516100dc91906101bb565b60405180910390a150565b600080fd5b6000819050919050565b6100ff816100ec565b811461010a57600080fd5b50565b60008135905061011c816100f6565b92915050565b600060208284031215610138576101376100e7565b5b60006101468482850161010d565b91505092915050565b600082825260208201905092915050565b7f4950465368617368206d6f646966696361746f20284950465348617368290000600082015250565b6000610196601e8361014f565b91506101a182610160565b602082019050919050565b6101b5816100ec565b82525050565b600060408201905081810360008301526101d481610189565b90506101e360208301846101ac565b9291505056fea2646970667358221220ee1aa8a73f0bd145734ac4695fd0ea153212c5bf6963a1d8b9af69ee2439116964736f6c63430008120033a264697066735822122017b1602173408e3cfcf25fe5b82f95e21b60f0b5c9cb00e015407e8c1457914c64736f6c63430008120033",
  "immutableReferences": {},
  "source": "// SPDX-License-Identifier: MIT \npragma solidity ^0.8.0;\n\nuint8 constant MAX_LENGTH = 10;   // massimo numero di contratti pubblicabili e figli ottenibili\n\nenum artistState {NoReq, ReqInviata, ReqAccettata, ReqNegata}    // stati di gestione delle richieste \n\nstruct ArtistReq {\n    artistState state;  // stato della richiesta, pu asssumere uno dei valori preimpostati\n    address EA; // eth Address sender  \n    address thisContract;\n    bytes32 hash;   // hash dell' econtent a cui ha fatto richiesta\n    bool result;    // true se l'artista ha eseguito una richiesta che  stata accettata\n}\n\nstruct Child {\n    address childOwner; // proprietario del contratto figlio\n    address childAddress;   // indirizzo del contratto figlio\n    address parentArtist;   // artista proprietario del contratto padre\n    address parentContract; // indirizzo del contratto padre\n}\n\ncontract Factory{\n    address[] private contracts;    // lista di tutti i contratti pubblicati\n    address[] private freezedContracts;   // lista di tutti i contratti bloccati\n\n    mapping (address => bool) private isArtist;   // mappa degli artisti registrati - true se sono registrati - false se non lo sono\n    mapping (address => address[]) private artistContracts;    // mappa di tutti i contratti pubblicati da un artista\n    mapping (address => address[]) private artistFreezedContracts;  // mappa di tutti i contratti congelati appartenti ad un artista\n    mapping (address => Child[]) private childContractsObtained;   // mappa dei contratti figli che un utente ha ottenuto\n    mapping (address => Child[]) private childContractsGiven;    // mappa dei contratti figli che un artista ha concesso\n    mapping (address => ArtistReq[]) private artistRequestsReceived; // mappa delle richieste ricevute da un artista\n    mapping (address => ArtistReq[]) private artistRequestsSent; // mappa delle richieste inviate da un artista\n    mapping (bytes32 => uint) private indexArtistRequestsReceived;    // mappa che indicizza l'hash univoco di una richiesta con un indice\n    mapping (bytes32 => uint) private indexArtistRequestsSent;    // mappa che indicizza l'hash univoco di una richiesta con un indice\n\n\n    // eventi factory contract\n    event ArtistAdded(string info, address indexed artist);\n    event DeployedContracts(string info, address indexed owner, address contractAddress);\n    event ChildCreated(string info, address indexed childOwner, address childAddress, address parentArtist, address parentContract);\n\n    // eventi content contract\n    event RegisteredReq(string info, address sender, address contractAddress, address owner);\n    event GrantedPerm(string info, address sender, address contractAddress, address owner);\n    event DeniedPerm(string info, address sender, address contractAddress, address owner);\n    event FreezedContract(string info, address indexed owner, address contractAddress);\n\n    // esegue il deploy di uno smart contract associandolo all'artista che ha chiamato il metodo\n    function createContract(string memory IPFSHash) public {\n        require(isArtist[msg.sender], \"Artista non presente in lista\");    // solo artisti registrati possono eseguire il deploy di contratti\n        require(artistContracts[msg.sender].length < MAX_LENGTH, \"Non possibile creare un contratto, limite raggiunto\"); // limito la quantit di contratti possedibili da un artista\n        \n        address newContract = address(new Content(msg.sender, keccak256(abi.encodePacked(IPFSHash)), address(this)));    // creazione contratto con proprietario il chiamante del metodo e l'hash del video (Converto una stringa in hash)\n        artistContracts[msg.sender].push(newContract);    // aggiungo il contratto alla lista dei contratti posseduti dall'artista\n        contracts.push(newContract);    // aggiungo il contratto alla lista di tutti i contratti\n        emit DeployedContracts(\"Contratto pubblicato: (owner, contractAddress)\", msg.sender, newContract);    // deploy del contratto completato\n    }\n\n    function createChildContract(address senderAddress, address parentArtist, bytes32 IPFShash, address parentContract, uint256 timestamp) external {        \n        ChildContent child = new ChildContent(senderAddress, parentArtist, IPFShash, parentContract, timestamp);   // creo il contratto figlio\n        childContractsObtained[senderAddress].push(Child({\n            childOwner: senderAddress,\n            childAddress: address(child),\n            parentArtist: parentArtist,\n            parentContract: parentContract\n        }));  // aggiunge l'indirizzo del figlio ottentuto alla mappa dell'utente\n        childContractsGiven[parentArtist].push(Child({\n            childOwner: senderAddress,\n            childAddress: address(child),\n            parentArtist: parentArtist,\n            parentContract: parentContract\n        }));  // aggiunge l'indirizzo del figlio concesso alla mappa del padre\n        emit ChildCreated(\"Contratto figlio pubblicato: (childOwner, childAddress, parentArtist, parentContract)\", senderAddress, address(child), parentArtist, parentContract); // contratto figlio creato\n    }\n\n    function registerArtist() public {  \n        require(!isArtist[msg.sender], \"Artista presente in lista\");    // per registrare un nuovo artista questo non pu essere gi registrato\n        \n        isArtist[msg.sender] = true; // imposto il valore dell'artista sulla mappa a true\n        emit ArtistAdded(\"Artista aggiunto in lista: (artistAddress)\", msg.sender); // artista aggiunto con successo\n    }\n\n    function getIsArtist(address user) public view returns (bool) {\n        return isArtist[user];\n    }\n\n    function getArtistContracts(address artist) public view returns (address[] memory) {\n        return artistContracts[artist];\n    }\n    \n    function getContracts() public view returns (address[] memory) {\n        return contracts;\n    }\n\n    function addArtistRequestsReceived(address artist, ArtistReq memory req, bytes32 requestKey) external {\n        artistRequestsReceived[artist].push(req);\n        indexArtistRequestsReceived[requestKey] = artistRequestsReceived[artist].length - 1;    // salvo l'indice della richiesta ricevuta\n    }\n\n    function getArtistRequestsReceived(address artist) public view returns (ArtistReq[] memory) {\n        return artistRequestsReceived[artist];\n    }\n\n    function addArtistRequestsSent(address artist, ArtistReq memory req, bytes32 requestKey) external {\n        artistRequestsSent[artist].push(req);\n        indexArtistRequestsSent[requestKey] = artistRequestsSent[artist].length - 1;    // salvo l'indice della richiesta inviata\n    }\n\n    function getArtistRequestsSent(address artist) public view returns (ArtistReq[] memory) {\n        return artistRequestsSent[artist];\n    }\n\n    function getChildContractsObtained(address artist) public view returns (Child[] memory) {\n        return childContractsObtained[artist];\n    }\n\n    function getChildContractsGiven(address artist) public view returns (Child[] memory) {\n        return childContractsGiven[artist];\n    }\n\n    function RegisteredReqEvent(address artist, address contractAddress, address owner) external {\n        emit RegisteredReq(\"Richiesta ricevuta (senderAddress, contractAddress, owner)\", artist, contractAddress, owner);\n    }\n\n    function GrantedPermEvent(address artist, address contractAddress, address owner) external {\n        bytes32 requestKey = keccak256(abi.encodePacked(artist, contractAddress, owner));\n        artistRequestsReceived[owner][indexArtistRequestsReceived[requestKey]].result = true;    // aggiorno la richiesta ricevuta con l'esito positivo\n        artistRequestsReceived[owner][indexArtistRequestsReceived[requestKey]].state = artistState.ReqAccettata;    // aggiorno lo stato della richiesta ricevuta\n        artistRequestsSent[artist][indexArtistRequestsSent[requestKey]].result = true;    // aggiorno la richiesta inviata con l'esito positivo\n        artistRequestsSent[artist][indexArtistRequestsSent[requestKey]].state = artistState.ReqAccettata;    // aggiorno lo stato della richiesta inviata \n        emit GrantedPerm(\"Permesso concesso (senderAddress, contractAddress, owner)\", artist, contractAddress, owner);\n    }\n\n    function DeniedPermEvent(address artist, address contractAddress, address owner) external {\n        bytes32 requestKey = keccak256(abi.encodePacked(artist, contractAddress, owner));\n        artistRequestsReceived[owner][indexArtistRequestsReceived[requestKey]].state = artistState.ReqNegata;    // aggiorno la richiesta ricevuta con l'esito negativo\n        artistRequestsSent[artist][indexArtistRequestsSent[requestKey]].state = artistState.ReqNegata;    // aggiorno la richiesta inviata con l'esito negativo\n        emit DeniedPerm(\"Permesso negato (senderAddress, contractAddress, owner)\", artist, contractAddress, owner);\n    }\n\n    function addFreezedContracts(address contractAddress, address owner) external {\n        freezedContracts.push(contractAddress);\n        artistFreezedContracts[owner].push(contractAddress);\n        emit FreezedContract(\"Contratto congelato (owner, contractAddress)\", owner, contractAddress);\n    }\n\n    function getFreezedContracts() public view returns (address[] memory) {\n        return freezedContracts;\n    }\n\n    function getArtistFreezedContracts(address artist) public view returns (address[] memory) {\n        return artistFreezedContracts[artist];\n    }\n}\n\ncontract Content{\n    // il deploy di uno smart contract corrisponde con la pubblicazione di un video/immagine/canzone/...\n    // ogni SC si occupa di autenticare l'originalit del econtent e di gestire richieste eseguite da altri artisti/utenti di riutilizzare tale contenuto\n    address private _owner;  // proprietario dello SC\n    EContent private thisEContent;   // informazioni sul contenuto digitale\n    Factory private factory; // contratto factory che ha eseguito il deploy di questo SC\n    bool private freeze;    // determina il blocco del contratto, se vale true il contratto rifiuter tutte le richieste\n\n    struct EContent {\n        address owner;  // proprietario del econtent\n        bytes32 IPFS_Hash;    // IPFS hash del econtent\n        address SC_address;   // indirizzo SC associato all' econtent\n        uint256 timestamp;    // data pubblicazione\n    }\n\n    mapping (address => ArtistReq) private requests; // mappa che associa la richiesta ricevuta all'artista che l'ha fatta\n\n    event Request (string info, bytes32 requestHash);\n    event Reply (string info, bytes32 requestHash);\n\n    modifier onlyOwner(){\n        require(msg.sender == _owner);\n        _;\n    } \n\n    modifier notOwner(){\n        require(msg.sender != _owner);\n        _;\n    }\n\n    constructor(address sender, bytes32 IPFShash, address factoryAddress){\n        factory = Factory(factoryAddress);  // salvo l'istanza del contratto Factory\n        _owner = sender;    // il proprietario  colui che ha creato lo SC\n        thisEContent.owner = sender;\n        thisEContent.IPFS_Hash = IPFShash;\n        thisEContent.SC_address = address(this);\n        thisEContent.timestamp = block.timestamp;   // salvo l'istante temporale in cui viene creato il blocco\n        freeze = false; // blocco del contratto, all'inizio impostato a false\n    }\n\n    // richiesta permesso di riutilizzo di un EContent - il proprietario non pu fare richiesta per un suo contenuto\n    function request() public notOwner{\n        require(requests[msg.sender].state == artistState.NoReq, \"Ammessa una sola richiesta per utente\");    // un utente pu fare una sola richiesta per contenuto\n        require(freeze == false, \"Contratto congelato\");   // esegue solo le il contratto non  stato bloccato\n\n        requests[msg.sender].state = artistState.ReqInviata; // aggiorno lo stato della richiesta e ne salvo le informazioni\n        requests[msg.sender].EA = msg.sender; \n        requests[msg.sender].thisContract = address(this);\n        requests[msg.sender].hash = thisEContent.IPFS_Hash;\n        requests[msg.sender].result = false;\n\n        bytes32 requestKey = keccak256(abi.encodePacked(msg.sender, address(this), _owner));\n        factory.addArtistRequestsReceived(_owner, requests[msg.sender], requestKey);    // aggiungo la richiesta alla lista di quelle ricevute dal proprietario\n        factory.addArtistRequestsSent(msg.sender, requests[msg.sender], requestKey);    // aggiungo la richiesta alla lista di quelle inviate dall'artista\n        factory.RegisteredReqEvent(msg.sender, address(this), _owner); // comunico l'avvenuta registrazione della richiesta\n        emit Request(\"Richiesta registrata: \", requestKey);\n    }\n    \n    // il proprietario dello SC pu rispondere alle richieste, accettandole o rifiutandole - richiamabile sono dal proprietario\n    function reply(bool result, address senderAddress) public onlyOwner{\n        require(requests[senderAddress].state == artistState.ReqInviata, \"Richiesta non in attesa di risposta\");   // valuto solo richieste che necessitano di risposta\n        \n        if(result){ // richiesta accettata\n            requests[senderAddress].state = artistState.ReqAccettata;  // aggiorno lo stato della richiesta nella lista\n            requests[senderAddress].result = result;\n            factory.GrantedPermEvent(senderAddress, address(this), _owner); // comunico l'esito\n            factory.createChildContract(senderAddress, msg.sender, thisEContent.IPFS_Hash, thisEContent.SC_address, thisEContent.timestamp); // richiamo il metodo del contratto factory che crea il figlio\n        }\n        else {  // richiesta rifiutata\n            requests[senderAddress].state = artistState.ReqNegata;   // aggiorno lo stato della richiesta generale\n            factory.DeniedPermEvent(senderAddress, address(this), _owner); // comunico l'esito\n        }\n        emit Reply(\"Risposta inviata: \", keccak256(abi.encodePacked(senderAddress, address(this), _owner)));\n    }\n\n    function getOwner() public view returns (address) {\n        return _owner;\n    }\n\n    function freezeContract() public onlyOwner() {  // congela contratto - non potr ricevere nuove richieste\n        require(freeze == false);   // non posso congelare un contratto gi congelato\n        \n        freeze = true;\n        factory.addFreezedContracts(address(this), msg.sender);    // aggiungo il contratto alla lista di quelli bloccati\n    }\n}\n\ncontract ChildContent {\n    // il contratto figlio non pu ricevere ed elaborare richieste\n    address private _owner;  // proprietario dello SC\n    ChildEContent private childContent;  // informazioni del contratto figlio\n\n    struct ChildEContent {\n        address owner;  // proprietario del econtent\n        bytes32 IPFS_Hash;    // IPFS hash del econtent\n        address SC_address;   // indirizzo SC associato all' econtent\n        uint256 timestamp;    // data pubblicazione\n        Content.EContent parent_EC;    // informazioni del contratto genitore\n    }\n\n    modifier onlyOwner(){\n        require(msg.sender == _owner);\n        _;\n    }\n\n    event CangedIPFSHash(string info, bytes32 IPFShash);\n\n    constructor(address senderAddress, address parentArtist, bytes32 IPFShash, address parentContract, uint256 timestamp){\n        _owner = senderAddress; // il proprietario dello SC figlio  l'utente a cui  stata accettata la richiesta\n        childContent.owner = senderAddress; // il contenuto figlio  di propriet dell'artista che ha eseguito la richiesta, pu modificarlo\n        childContent.IPFS_Hash = IPFShash;  // inizializzo l'hash del video figlio uguale al padre, pot farne ci che vuole\n        childContent.SC_address = address(this);    // l'indirizzo del contratto figlio  l'indirizzo del contratto stesso\n        childContent.timestamp = block.timestamp;   // salvo l'istante temporale in cui viene creato il blocco\n        childContent.parent_EC.owner = parentArtist; // copio le informazioni dello SC padre \n        childContent.parent_EC.IPFS_Hash = IPFShash;\n        childContent.parent_EC.SC_address = parentContract;\n        childContent.parent_EC.timestamp = timestamp;\n    }\n\n    // il proprietario del contenuto figlio ha la possibilit di modificarlo e aggiornare l'hash\n    function setIPFSHash(bytes32 IPFSHash) public onlyOwner{\n        childContent.IPFS_Hash = IPFSHash;\n        emit CangedIPFSHash(\"IPFShash modificato (IPFSHash)\", IPFSHash);\n    }\n}",
  "sourcePath": "/home/cavallinux/Backup/Universit/ProgettoBlockchain/Progetto/truffle/contracts/SC.sol",
  "compiler": {
    "name": "solc",
    "version": "0.8.18+commit.87f61d96.Emscripten.clang"
  },
  "schemaVersion": "3.4.16",
  "updatedAt": "2024-09-29T15:16:31.083Z",
  "devdoc": {
    "kind": "dev",
    "methods": {},
    "version": 1
  },
  "userdoc": {
    "kind": "user",
    "methods": {},
    "version": 1
  }
}