{
  "contractName": "Factory",
  "abi": [
    {
      "anonymous": false,
      "inputs": [
        {
          "indexed": false,
          "internalType": "string",
          "name": "info",
          "type": "string"
        },
        {
          "indexed": true,
          "internalType": "address",
          "name": "artist",
          "type": "address"
        }
      ],
      "name": "ArtistAdded",
      "type": "event"
    },
    {
      "anonymous": false,
      "inputs": [
        {
          "indexed": false,
          "internalType": "string",
          "name": "info",
          "type": "string"
        },
        {
          "indexed": true,
          "internalType": "address",
          "name": "childOwner",
          "type": "address"
        },
        {
          "indexed": false,
          "internalType": "address",
          "name": "childAddress",
          "type": "address"
        },
        {
          "indexed": false,
          "internalType": "address",
          "name": "parentArtist",
          "type": "address"
        },
        {
          "indexed": false,
          "internalType": "address",
          "name": "parentContract",
          "type": "address"
        }
      ],
      "name": "ChildCreated",
      "type": "event"
    },
    {
      "anonymous": false,
      "inputs": [
        {
          "indexed": false,
          "internalType": "string",
          "name": "info",
          "type": "string"
        },
        {
          "indexed": false,
          "internalType": "address",
          "name": "sender",
          "type": "address"
        },
        {
          "indexed": false,
          "internalType": "address",
          "name": "contractAddress",
          "type": "address"
        },
        {
          "indexed": false,
          "internalType": "address",
          "name": "owner",
          "type": "address"
        }
      ],
      "name": "DeniedPerm",
      "type": "event"
    },
    {
      "anonymous": false,
      "inputs": [
        {
          "indexed": false,
          "internalType": "string",
          "name": "info",
          "type": "string"
        },
        {
          "indexed": true,
          "internalType": "address",
          "name": "owner",
          "type": "address"
        },
        {
          "indexed": false,
          "internalType": "address",
          "name": "contractAddress",
          "type": "address"
        }
      ],
      "name": "DeployedContracts",
      "type": "event"
    },
    {
      "anonymous": false,
      "inputs": [
        {
          "indexed": false,
          "internalType": "string",
          "name": "info",
          "type": "string"
        },
        {
          "indexed": true,
          "internalType": "address",
          "name": "owner",
          "type": "address"
        },
        {
          "indexed": false,
          "internalType": "address",
          "name": "contractAddress",
          "type": "address"
        }
      ],
      "name": "FreezedContract",
      "type": "event"
    },
    {
      "anonymous": false,
      "inputs": [
        {
          "indexed": false,
          "internalType": "string",
          "name": "info",
          "type": "string"
        },
        {
          "indexed": false,
          "internalType": "address",
          "name": "sender",
          "type": "address"
        },
        {
          "indexed": false,
          "internalType": "address",
          "name": "contractAddress",
          "type": "address"
        },
        {
          "indexed": false,
          "internalType": "address",
          "name": "owner",
          "type": "address"
        }
      ],
      "name": "GrantedPerm",
      "type": "event"
    },
    {
      "anonymous": false,
      "inputs": [
        {
          "indexed": false,
          "internalType": "string",
          "name": "info",
          "type": "string"
        },
        {
          "indexed": false,
          "internalType": "address",
          "name": "sender",
          "type": "address"
        },
        {
          "indexed": false,
          "internalType": "address",
          "name": "contractAddress",
          "type": "address"
        },
        {
          "indexed": false,
          "internalType": "address",
          "name": "owner",
          "type": "address"
        }
      ],
      "name": "RegisteredReq",
      "type": "event"
    },
    {
      "inputs": [
        {
          "internalType": "string",
          "name": "IPFSHash",
          "type": "string"
        }
      ],
      "name": "createContract",
      "outputs": [],
      "stateMutability": "nonpayable",
      "type": "function"
    },
    {
      "inputs": [
        {
          "internalType": "address",
          "name": "senderAddress",
          "type": "address"
        },
        {
          "internalType": "address",
          "name": "parentArtist",
          "type": "address"
        },
        {
          "internalType": "bytes32",
          "name": "IPFShash",
          "type": "bytes32"
        },
        {
          "internalType": "address",
          "name": "parentContract",
          "type": "address"
        },
        {
          "internalType": "uint256",
          "name": "timestamp",
          "type": "uint256"
        }
      ],
      "name": "createChildContract",
      "outputs": [],
      "stateMutability": "nonpayable",
      "type": "function"
    },
    {
      "inputs": [],
      "name": "registerArtist",
      "outputs": [],
      "stateMutability": "nonpayable",
      "type": "function"
    },
    {
      "inputs": [
        {
          "internalType": "address",
          "name": "user",
          "type": "address"
        }
      ],
      "name": "getIsArtist",
      "outputs": [
        {
          "internalType": "bool",
          "name": "",
          "type": "bool"
        }
      ],
      "stateMutability": "view",
      "type": "function",
      "constant": true
    },
    {
      "inputs": [
        {
          "internalType": "address",
          "name": "artist",
          "type": "address"
        }
      ],
      "name": "getArtistContracts",
      "outputs": [
        {
          "internalType": "address[]",
          "name": "",
          "type": "address[]"
        }
      ],
      "stateMutability": "view",
      "type": "function",
      "constant": true
    },
    {
      "inputs": [],
      "name": "getContracts",
      "outputs": [
        {
          "internalType": "address[]",
          "name": "",
          "type": "address[]"
        }
      ],
      "stateMutability": "view",
      "type": "function",
      "constant": true
    },
    {
      "inputs": [
        {
          "internalType": "address",
          "name": "artist",
          "type": "address"
        },
        {
          "components": [
            {
              "internalType": "enum artistState",
              "name": "state",
              "type": "uint8"
            },
            {
              "internalType": "address",
              "name": "EA",
              "type": "address"
            },
            {
              "internalType": "address",
              "name": "thisContract",
              "type": "address"
            },
            {
              "internalType": "bytes32",
              "name": "hash",
              "type": "bytes32"
            },
            {
              "internalType": "bool",
              "name": "result",
              "type": "bool"
            }
          ],
          "internalType": "struct ArtistReq",
          "name": "req",
          "type": "tuple"
        },
        {
          "internalType": "bytes32",
          "name": "requestKey",
          "type": "bytes32"
        }
      ],
      "name": "addArtistRequestsReceived",
      "outputs": [],
      "stateMutability": "nonpayable",
      "type": "function"
    },
    {
      "inputs": [
        {
          "internalType": "address",
          "name": "artist",
          "type": "address"
        }
      ],
      "name": "getArtistRequestsReceived",
      "outputs": [
        {
          "components": [
            {
              "internalType": "enum artistState",
              "name": "state",
              "type": "uint8"
            },
            {
              "internalType": "address",
              "name": "EA",
              "type": "address"
            },
            {
              "internalType": "address",
              "name": "thisContract",
              "type": "address"
            },
            {
              "internalType": "bytes32",
              "name": "hash",
              "type": "bytes32"
            },
            {
              "internalType": "bool",
              "name": "result",
              "type": "bool"
            }
          ],
          "internalType": "struct ArtistReq[]",
          "name": "",
          "type": "tuple[]"
        }
      ],
      "stateMutability": "view",
      "type": "function",
      "constant": true
    },
    {
      "inputs": [
        {
          "internalType": "address",
          "name": "artist",
          "type": "address"
        },
        {
          "components": [
            {
              "internalType": "enum artistState",
              "name": "state",
              "type": "uint8"
            },
            {
              "internalType": "address",
              "name": "EA",
              "type": "address"
            },
            {
              "internalType": "address",
              "name": "thisContract",
              "type": "address"
            },
            {
              "internalType": "bytes32",
              "name": "hash",
              "type": "bytes32"
            },
            {
              "internalType": "bool",
              "name": "result",
              "type": "bool"
            }
          ],
          "internalType": "struct ArtistReq",
          "name": "req",
          "type": "tuple"
        },
        {
          "internalType": "bytes32",
          "name": "requestKey",
          "type": "bytes32"
        }
      ],
      "name": "addArtistRequestsSent",
      "outputs": [],
      "stateMutability": "nonpayable",
      "type": "function"
    },
    {
      "inputs": [
        {
          "internalType": "address",
          "name": "artist",
          "type": "address"
        }
      ],
      "name": "getArtistRequestsSent",
      "outputs": [
        {
          "components": [
            {
              "internalType": "enum artistState",
              "name": "state",
              "type": "uint8"
            },
            {
              "internalType": "address",
              "name": "EA",
              "type": "address"
            },
            {
              "internalType": "address",
              "name": "thisContract",
              "type": "address"
            },
            {
              "internalType": "bytes32",
              "name": "hash",
              "type": "bytes32"
            },
            {
              "internalType": "bool",
              "name": "result",
              "type": "bool"
            }
          ],
          "internalType": "struct ArtistReq[]",
          "name": "",
          "type": "tuple[]"
        }
      ],
      "stateMutability": "view",
      "type": "function",
      "constant": true
    },
    {
      "inputs": [
        {
          "internalType": "address",
          "name": "artist",
          "type": "address"
        }
      ],
      "name": "getChildContractsObtained",
      "outputs": [
        {
          "components": [
            {
              "internalType": "address",
              "name": "childOwner",
              "type": "address"
            },
            {
              "internalType": "address",
              "name": "childAddress",
              "type": "address"
            },
            {
              "internalType": "address",
              "name": "parentArtist",
              "type": "address"
            },
            {
              "internalType": "address",
              "name": "parentContract",
              "type": "address"
            }
          ],
          "internalType": "struct Child[]",
          "name": "",
          "type": "tuple[]"
        }
      ],
      "stateMutability": "view",
      "type": "function",
      "constant": true
    },
    {
      "inputs": [
        {
          "internalType": "address",
          "name": "artist",
          "type": "address"
        }
      ],
      "name": "getChildContractsGiven",
      "outputs": [
        {
          "components": [
            {
              "internalType": "address",
              "name": "childOwner",
              "type": "address"
            },
            {
              "internalType": "address",
              "name": "childAddress",
              "type": "address"
            },
            {
              "internalType": "address",
              "name": "parentArtist",
              "type": "address"
            },
            {
              "internalType": "address",
              "name": "parentContract",
              "type": "address"
            }
          ],
          "internalType": "struct Child[]",
          "name": "",
          "type": "tuple[]"
        }
      ],
      "stateMutability": "view",
      "type": "function",
      "constant": true
    },
    {
      "inputs": [
        {
          "internalType": "address",
          "name": "artist",
          "type": "address"
        },
        {
          "internalType": "address",
          "name": "contractAddress",
          "type": "address"
        },
        {
          "internalType": "address",
          "name": "owner",
          "type": "address"
        }
      ],
      "name": "RegisteredReqEvent",
      "outputs": [],
      "stateMutability": "nonpayable",
      "type": "function"
    },
    {
      "inputs": [
        {
          "internalType": "address",
          "name": "artist",
          "type": "address"
        },
        {
          "internalType": "address",
          "name": "contractAddress",
          "type": "address"
        },
        {
          "internalType": "address",
          "name": "owner",
          "type": "address"
        }
      ],
      "name": "GrantedPermEvent",
      "outputs": [],
      "stateMutability": "nonpayable",
      "type": "function"
    },
    {
      "inputs": [
        {
          "internalType": "address",
          "name": "artist",
          "type": "address"
        },
        {
          "internalType": "address",
          "name": "contractAddress",
          "type": "address"
        },
        {
          "internalType": "address",
          "name": "owner",
          "type": "address"
        }
      ],
      "name": "DeniedPermEvent",
      "outputs": [],
      "stateMutability": "nonpayable",
      "type": "function"
    },
    {
      "inputs": [
        {
          "internalType": "address",
          "name": "contractAddress",
          "type": "address"
        },
        {
          "internalType": "address",
          "name": "owner",
          "type": "address"
        }
      ],
      "name": "addFreezedContracts",
      "outputs": [],
      "stateMutability": "nonpayable",
      "type": "function"
    },
    {
      "inputs": [],
      "name": "getFreezedContracts",
      "outputs": [
        {
          "internalType": "address[]",
          "name": "",
          "type": "address[]"
        }
      ],
      "stateMutability": "view",
      "type": "function",
      "constant": true
    },
    {
      "inputs": [
        {
          "internalType": "address",
          "name": "artist",
          "type": "address"
        }
      ],
      "name": "getArtistFreezedContracts",
      "outputs": [
        {
          "internalType": "address[]",
          "name": "",
          "type": "address[]"
        }
      ],
      "stateMutability": "view",
      "type": "function",
      "constant": true
    }
  ],
  "bytecode": "0x608060405234801561001057600080fd5b50615922806100206000396000f3fe60806040523480156200001157600080fd5b5060043610620001305760003560e01c80636888cff211620000b157806396aebbad116200007b57806396aebbad146200032f578063ac0b23ad146200034f578063b67f34e61462000371578063bb14f19314620003a7578063c3a2a93a14620003dd5762000130565b80636888cff2146200029757806369714a1414620002cd578063766ef3e714620003035780639204fd3c146200030f5762000130565b806318f80bb911620000ff57806318f80bb914620001e157806319790a7e146200020157806339980cfa14620002215780633f77dd9d14620002575780633ff9e83f14620002775762000130565b80630609b7fd1462000135578063143914e8146200015557806317fa3c99146200017557806318b5c53414620001ab575b600080fd5b6200015360048036038101906200014d9190620025a7565b620003ff565b005b6200017360048036038101906200016d9190620025a7565b6200064a565b005b6200019360048036038101906200018d919062002603565b6200071b565b604051620001a291906200282d565b60405180910390f35b620001c96004803603810190620001c3919062002603565b620008cd565b604051620001d891906200282d565b60405180910390f35b620001ff6004803603810190620001f99190620029b3565b62000a7f565b005b6200021f600480360381019062000219919062002b2e565b62000db1565b005b6200023f600480360381019062000239919062002603565b62001003565b6040516200024e919062002c47565b60405180910390f35b6200027560048036038101906200026f919062002ca6565b620010d2565b005b6200029560048036038101906200028f9190620025a7565b62001600565b005b620002b56004803603810190620002af919062002603565b6200196d565b604051620002c4919062002d3f565b60405180910390f35b620002eb6004803603810190620002e5919062002603565b620019c3565b604051620002fa919062002e76565b60405180910390f35b6200030d62001bbb565b005b6200032d600480360381019062000327919062002b2e565b62001cf3565b005b6200034d600480360381019062000347919062002e9a565b62001f45565b005b620003596200212b565b60405162000368919062002c47565b60405180910390f35b6200038f600480360381019062000389919062002603565b620021bb565b6040516200039e919062002e76565b60405180910390f35b620003c56004803603810190620003bf919062002603565b620023b3565b604051620003d4919062002c47565b60405180910390f35b620003e762002482565b604051620003f6919062002c47565b60405180910390f35b600b60003373ffffffffffffffffffffffffffffffffffffffff1673ffffffffffffffffffffffffffffffffffffffff16815260200190815260200160002060009054906101000a900460ff166200048e576040517f08c379a0000000000000000000000000000000000000000000000000000000008152600401620004859062002f68565b60405180910390fd5b6000838383604051602001620004a79392919062002fda565b6040516020818303038152906040528051906020012090506003600760008473ffffffffffffffffffffffffffffffffffffffff1673ffffffffffffffffffffffffffffffffffffffff1681526020019081526020016000206009600084815260200190815260200160002054815481106200052857620005276200301d565b5b906000526020600020906004020160000160006101000a81548160ff021916908360038111156200055e576200055d62002661565b5b02179055506003600860008673ffffffffffffffffffffffffffffffffffffffff1673ffffffffffffffffffffffffffffffffffffffff168152602001908152602001600020600a60008481526020019081526020016000205481548110620005cc57620005cb6200301d565b5b906000526020600020906004020160000160006101000a81548160ff0219169083600381111562000602576200060162002661565b5b02179055507f953cb4783cd5322bf15c0f2577e860930d47665ef24ccb64d27669e92077ecf68484846040516200063c93929190620030d3565b60405180910390a150505050565b600b60003373ffffffffffffffffffffffffffffffffffffffff1673ffffffffffffffffffffffffffffffffffffffff16815260200190815260200160002060009054906101000a900460ff16620006d9576040517f08c379a0000000000000000000000000000000000000000000000000000000008152600401620006d0906200319b565b60405180910390fd5b7ffe85a440eeb955db02cb6a979383619bf804fb3a73ecadfc54b024a40294a12a8383836040516200070e9392919062003233565b60405180910390a1505050565b6060600860008373ffffffffffffffffffffffffffffffffffffffff1673ffffffffffffffffffffffffffffffffffffffff168152602001908152602001600020805480602002602001604051908101604052809291908181526020016000905b82821015620008c257838290600052602060002090600402016040518060a00160405290816000820160009054906101000a900460ff166003811115620007c857620007c762002661565b5b6003811115620007dd57620007dc62002661565b5b81526020016000820160019054906101000a900473ffffffffffffffffffffffffffffffffffffffff1673ffffffffffffffffffffffffffffffffffffffff1673ffffffffffffffffffffffffffffffffffffffff1681526020016001820160009054906101000a900473ffffffffffffffffffffffffffffffffffffffff1673ffffffffffffffffffffffffffffffffffffffff1673ffffffffffffffffffffffffffffffffffffffff168152602001600282015481526020016003820160009054906101000a900460ff161515151581525050815260200190600101906200077c565b505050509050919050565b6060600760008373ffffffffffffffffffffffffffffffffffffffff1673ffffffffffffffffffffffffffffffffffffffff168152602001908152602001600020805480602002602001604051908101604052809291908181526020016000905b8282101562000a7457838290600052602060002090600402016040518060a00160405290816000820160009054906101000a900460ff1660038111156200097a576200097962002661565b5b60038111156200098f576200098e62002661565b5b81526020016000820160019054906101000a900473ffffffffffffffffffffffffffffffffffffffff1673ffffffffffffffffffffffffffffffffffffffff1673ffffffffffffffffffffffffffffffffffffffff1681526020016001820160009054906101000a900473ffffffffffffffffffffffffffffffffffffffff1673ffffffffffffffffffffffffffffffffffffffff1673ffffffffffffffffffffffffffffffffffffffff168152602001600282015481526020016003820160009054906101000a900460ff161515151581525050815260200190600101906200092e565b505050509050919050565b600260003373ffffffffffffffffffffffffffffffffffffffff1673ffffffffffffffffffffffffffffffffffffffff16815260200190815260200160002060009054906101000a900460ff1662000b0e576040517f08c379a000000000000000000000000000000000000000000000000000000000815260040162000b0590620032d5565b60405180910390fd5b600a60ff16600360003373ffffffffffffffffffffffffffffffffffffffff1673ffffffffffffffffffffffffffffffffffffffff168152602001908152602001600020805490501062000b99576040517f08c379a000000000000000000000000000000000000000000000000000000000815260040162000b90906200336d565b60405180910390fd5b6000338260405160200162000baf919062003408565b604051602081830303815290604052805190602001203060405162000bd49062002512565b62000be29392919062003432565b604051809103906000f08015801562000bff573d6000803e3d6000fd5b509050600360003373ffffffffffffffffffffffffffffffffffffffff1673ffffffffffffffffffffffffffffffffffffffff168152602001908152602001600020819080600181540180825580915050600190039060005260206000200160009091909190916101000a81548173ffffffffffffffffffffffffffffffffffffffff021916908373ffffffffffffffffffffffffffffffffffffffff1602179055506000819080600181540180825580915050600190039060005260206000200160009091909190916101000a81548173ffffffffffffffffffffffffffffffffffffffff021916908373ffffffffffffffffffffffffffffffffffffffff1602179055506001600b60008373ffffffffffffffffffffffffffffffffffffffff1673ffffffffffffffffffffffffffffffffffffffff16815260200190815260200160002060006101000a81548160ff0219169083151502179055503373ffffffffffffffffffffffffffffffffffffffff167fe9c49900341feac9a9b55ba8ebbd191df0c23420283b242961485e20862d282f8260405162000da59190620034e5565b60405180910390a25050565b600b60003373ffffffffffffffffffffffffffffffffffffffff1673ffffffffffffffffffffffffffffffffffffffff16815260200190815260200160002060009054906101000a900460ff1662000e40576040517f08c379a000000000000000000000000000000000000000000000000000000000815260040162000e37906200358d565b60405180910390fd5b600760008473ffffffffffffffffffffffffffffffffffffffff1673ffffffffffffffffffffffffffffffffffffffff16815260200190815260200160002082908060018154018082558091505060019003906000526020600020906004020160009091909190915060008201518160000160006101000a81548160ff0219169083600381111562000ed75762000ed662002661565b5b021790555060208201518160000160016101000a81548173ffffffffffffffffffffffffffffffffffffffff021916908373ffffffffffffffffffffffffffffffffffffffff16021790555060408201518160010160006101000a81548173ffffffffffffffffffffffffffffffffffffffff021916908373ffffffffffffffffffffffffffffffffffffffff1602179055506060820151816002015560808201518160030160006101000a81548160ff02191690831515021790555050506001600760008573ffffffffffffffffffffffffffffffffffffffff1673ffffffffffffffffffffffffffffffffffffffff1681526020019081526020016000208054905062000fe79190620035de565b6009600083815260200190815260200160002081905550505050565b6060600360008373ffffffffffffffffffffffffffffffffffffffff1673ffffffffffffffffffffffffffffffffffffffff168152602001908152602001600020805480602002602001604051908101604052809291908181526020018280548015620010c657602002820191906000526020600020905b8160009054906101000a900473ffffffffffffffffffffffffffffffffffffffff1673ffffffffffffffffffffffffffffffffffffffff16815260200190600101908083116200107b575b50505050509050919050565b600b60003373ffffffffffffffffffffffffffffffffffffffff1673ffffffffffffffffffffffffffffffffffffffff16815260200190815260200160002060009054906101000a900460ff1662001161576040517f08c379a000000000000000000000000000000000000000000000000000000000815260040162001158906200368f565b60405180910390fd5b60008585858585604051620011769062002520565b62001186959493929190620036c2565b604051809103906000f080158015620011a3573d6000803e3d6000fd5b509050600560008773ffffffffffffffffffffffffffffffffffffffff1673ffffffffffffffffffffffffffffffffffffffff16815260200190815260200160002060405180608001604052808873ffffffffffffffffffffffffffffffffffffffff1681526020018373ffffffffffffffffffffffffffffffffffffffff1681526020018773ffffffffffffffffffffffffffffffffffffffff1681526020018573ffffffffffffffffffffffffffffffffffffffff16815250908060018154018082558091505060019003906000526020600020906004020160009091909190915060008201518160000160006101000a81548173ffffffffffffffffffffffffffffffffffffffff021916908373ffffffffffffffffffffffffffffffffffffffff16021790555060208201518160010160006101000a81548173ffffffffffffffffffffffffffffffffffffffff021916908373ffffffffffffffffffffffffffffffffffffffff16021790555060408201518160020160006101000a81548173ffffffffffffffffffffffffffffffffffffffff021916908373ffffffffffffffffffffffffffffffffffffffff16021790555060608201518160030160006101000a81548173ffffffffffffffffffffffffffffffffffffffff021916908373ffffffffffffffffffffffffffffffffffffffff1602179055505050600660008673ffffffffffffffffffffffffffffffffffffffff1673ffffffffffffffffffffffffffffffffffffffff16815260200190815260200160002060405180608001604052808873ffffffffffffffffffffffffffffffffffffffff1681526020018373ffffffffffffffffffffffffffffffffffffffff1681526020018773ffffffffffffffffffffffffffffffffffffffff1681526020018573ffffffffffffffffffffffffffffffffffffffff16815250908060018154018082558091505060019003906000526020600020906004020160009091909190915060008201518160000160006101000a81548173ffffffffffffffffffffffffffffffffffffffff021916908373ffffffffffffffffffffffffffffffffffffffff16021790555060208201518160010160006101000a81548173ffffffffffffffffffffffffffffffffffffffff021916908373ffffffffffffffffffffffffffffffffffffffff16021790555060408201518160020160006101000a81548173ffffffffffffffffffffffffffffffffffffffff021916908373ffffffffffffffffffffffffffffffffffffffff16021790555060608201518160030160006101000a81548173ffffffffffffffffffffffffffffffffffffffff021916908373ffffffffffffffffffffffffffffffffffffffff16021790555050508573ffffffffffffffffffffffffffffffffffffffff167f35f84ed5e450eee1d89b1d166b3baab3794b7e3ac503420a5867e646bea15460828786604051620015f093929190620037bb565b60405180910390a2505050505050565b600b60003373ffffffffffffffffffffffffffffffffffffffff1673ffffffffffffffffffffffffffffffffffffffff16815260200190815260200160002060009054906101000a900460ff166200168f576040517f08c379a0000000000000000000000000000000000000000000000000000000008152600401620016869062003883565b60405180910390fd5b6000838383604051602001620016a89392919062002fda565b6040516020818303038152906040528051906020012090506001600760008473ffffffffffffffffffffffffffffffffffffffff1673ffffffffffffffffffffffffffffffffffffffff1681526020019081526020016000206009600084815260200190815260200160002054815481106200172957620017286200301d565b5b906000526020600020906004020160030160006101000a81548160ff0219169083151502179055506002600760008473ffffffffffffffffffffffffffffffffffffffff1673ffffffffffffffffffffffffffffffffffffffff168152602001908152602001600020600960008481526020019081526020016000205481548110620017ba57620017b96200301d565b5b906000526020600020906004020160000160006101000a81548160ff02191690836003811115620017f057620017ef62002661565b5b02179055506001600860008673ffffffffffffffffffffffffffffffffffffffff1673ffffffffffffffffffffffffffffffffffffffff168152602001908152602001600020600a600084815260200190815260200160002054815481106200185e576200185d6200301d565b5b906000526020600020906004020160030160006101000a81548160ff0219169083151502179055506002600860008673ffffffffffffffffffffffffffffffffffffffff1673ffffffffffffffffffffffffffffffffffffffff168152602001908152602001600020600a60008481526020019081526020016000205481548110620018ef57620018ee6200301d565b5b906000526020600020906004020160000160006101000a81548160ff0219169083600381111562001925576200192462002661565b5b02179055507f628c4880b53f1496025c5f723fc821f89099460e355ce3c0931359aac587cf2c8484846040516200195f939291906200391b565b60405180910390a150505050565b6000600260008373ffffffffffffffffffffffffffffffffffffffff1673ffffffffffffffffffffffffffffffffffffffff16815260200190815260200160002060009054906101000a900460ff169050919050565b6060600660008373ffffffffffffffffffffffffffffffffffffffff1673ffffffffffffffffffffffffffffffffffffffff168152602001908152602001600020805480602002602001604051908101604052809291908181526020016000905b8282101562001bb057838290600052602060002090600402016040518060800160405290816000820160009054906101000a900473ffffffffffffffffffffffffffffffffffffffff1673ffffffffffffffffffffffffffffffffffffffff1673ffffffffffffffffffffffffffffffffffffffff1681526020016001820160009054906101000a900473ffffffffffffffffffffffffffffffffffffffff1673ffffffffffffffffffffffffffffffffffffffff1673ffffffffffffffffffffffffffffffffffffffff1681526020016002820160009054906101000a900473ffffffffffffffffffffffffffffffffffffffff1673ffffffffffffffffffffffffffffffffffffffff1673ffffffffffffffffffffffffffffffffffffffff1681526020016003820160009054906101000a900473ffffffffffffffffffffffffffffffffffffffff1673ffffffffffffffffffffffffffffffffffffffff1673ffffffffffffffffffffffffffffffffffffffff16815250508152602001906001019062001a24565b505050509050919050565b600260003373ffffffffffffffffffffffffffffffffffffffff1673ffffffffffffffffffffffffffffffffffffffff16815260200190815260200160002060009054906101000a900460ff161562001c4b576040517f08c379a000000000000000000000000000000000000000000000000000000000815260040162001c4290620039bd565b60405180910390fd5b6001600260003373ffffffffffffffffffffffffffffffffffffffff1673ffffffffffffffffffffffffffffffffffffffff16815260200190815260200160002060006101000a81548160ff0219169083151502179055503373ffffffffffffffffffffffffffffffffffffffff167f2ba4761022e57f025b35d7b95731d12707ded82df74e5aa84c26088acf79bb3160405162001ce99062003a55565b60405180910390a2565b600b60003373ffffffffffffffffffffffffffffffffffffffff1673ffffffffffffffffffffffffffffffffffffffff16815260200190815260200160002060009054906101000a900460ff1662001d82576040517f08c379a000000000000000000000000000000000000000000000000000000000815260040162001d799062003aed565b60405180910390fd5b600860008473ffffffffffffffffffffffffffffffffffffffff1673ffffffffffffffffffffffffffffffffffffffff16815260200190815260200160002082908060018154018082558091505060019003906000526020600020906004020160009091909190915060008201518160000160006101000a81548160ff0219169083600381111562001e195762001e1862002661565b5b021790555060208201518160000160016101000a81548173ffffffffffffffffffffffffffffffffffffffff021916908373ffffffffffffffffffffffffffffffffffffffff16021790555060408201518160010160006101000a81548173ffffffffffffffffffffffffffffffffffffffff021916908373ffffffffffffffffffffffffffffffffffffffff1602179055506060820151816002015560808201518160030160006101000a81548160ff02191690831515021790555050506001600860008573ffffffffffffffffffffffffffffffffffffffff1673ffffffffffffffffffffffffffffffffffffffff1681526020019081526020016000208054905062001f299190620035de565b600a600083815260200190815260200160002081905550505050565b600b60003373ffffffffffffffffffffffffffffffffffffffff1673ffffffffffffffffffffffffffffffffffffffff16815260200190815260200160002060009054906101000a900460ff1662001fd4576040517f08c379a000000000000000000000000000000000000000000000000000000000815260040162001fcb9062003b85565b60405180910390fd5b6001829080600181540180825580915050600190039060005260206000200160009091909190916101000a81548173ffffffffffffffffffffffffffffffffffffffff021916908373ffffffffffffffffffffffffffffffffffffffff160217905550600460008273ffffffffffffffffffffffffffffffffffffffff1673ffffffffffffffffffffffffffffffffffffffff168152602001908152602001600020829080600181540180825580915050600190039060005260206000200160009091909190916101000a81548173ffffffffffffffffffffffffffffffffffffffff021916908373ffffffffffffffffffffffffffffffffffffffff1602179055508073ffffffffffffffffffffffffffffffffffffffff167f8c6a18ab335626f1347dafba8a4583f9f7a0ca277339118a93194718b4eb3ae7836040516200211f919062003c1d565b60405180910390a25050565b60606001805480602002602001604051908101604052809291908181526020018280548015620021b157602002820191906000526020600020905b8160009054906101000a900473ffffffffffffffffffffffffffffffffffffffff1673ffffffffffffffffffffffffffffffffffffffff168152602001906001019080831162002166575b5050505050905090565b6060600560008373ffffffffffffffffffffffffffffffffffffffff1673ffffffffffffffffffffffffffffffffffffffff168152602001908152602001600020805480602002602001604051908101604052809291908181526020016000905b82821015620023a857838290600052602060002090600402016040518060800160405290816000820160009054906101000a900473ffffffffffffffffffffffffffffffffffffffff1673ffffffffffffffffffffffffffffffffffffffff1673ffffffffffffffffffffffffffffffffffffffff1681526020016001820160009054906101000a900473ffffffffffffffffffffffffffffffffffffffff1673ffffffffffffffffffffffffffffffffffffffff1673ffffffffffffffffffffffffffffffffffffffff1681526020016002820160009054906101000a900473ffffffffffffffffffffffffffffffffffffffff1673ffffffffffffffffffffffffffffffffffffffff1673ffffffffffffffffffffffffffffffffffffffff1681526020016003820160009054906101000a900473ffffffffffffffffffffffffffffffffffffffff1673ffffffffffffffffffffffffffffffffffffffff1673ffffffffffffffffffffffffffffffffffffffff1681525050815260200190600101906200221c565b505050509050919050565b6060600460008373ffffffffffffffffffffffffffffffffffffffff1673ffffffffffffffffffffffffffffffffffffffff1681526020019081526020016000208054806020026020016040519081016040528092919081815260200182805480156200247657602002820191906000526020600020905b8160009054906101000a900473ffffffffffffffffffffffffffffffffffffffff1673ffffffffffffffffffffffffffffffffffffffff16815260200190600101908083116200242b575b50505050509050919050565b606060008054806020026020016040519081016040528092919081815260200182805480156200250857602002820191906000526020600020905b8160009054906101000a900473ffffffffffffffffffffffffffffffffffffffff1673ffffffffffffffffffffffffffffffffffffffff1681526020019060010190808311620024bd575b5050505050905090565b6117668062003c5083390190565b61053780620053b683390190565b6000604051905090565b600080fd5b600080fd5b600073ffffffffffffffffffffffffffffffffffffffff82169050919050565b60006200256f8262002542565b9050919050565b620025818162002562565b81146200258d57600080fd5b50565b600081359050620025a18162002576565b92915050565b600080600060608486031215620025c357620025c262002538565b5b6000620025d38682870162002590565b9350506020620025e68682870162002590565b9250506040620025f98682870162002590565b9150509250925092565b6000602082840312156200261c576200261b62002538565b5b60006200262c8482850162002590565b91505092915050565b600081519050919050565b600082825260208201905092915050565b6000819050602082019050919050565b7f4e487b7100000000000000000000000000000000000000000000000000000000600052602160045260246000fd5b60048110620026a457620026a362002661565b5b50565b6000819050620026b78262002690565b919050565b6000620026c982620026a7565b9050919050565b620026db81620026bc565b82525050565b620026ec8162002562565b82525050565b6000819050919050565b6200270781620026f2565b82525050565b60008115159050919050565b62002724816200270d565b82525050565b60a082016000820151620027426000850182620026d0565b506020820151620027576020850182620026e1565b5060408201516200276c6040850182620026e1565b506060820151620027816060850182620026fc565b50608082015162002796608085018262002719565b50505050565b6000620027aa83836200272a565b60a08301905092915050565b6000602082019050919050565b6000620027d08262002635565b620027dc818562002640565b9350620027e98362002651565b8060005b83811015620028205781516200280488826200279c565b97506200281183620027b6565b925050600181019050620027ed565b5085935050505092915050565b60006020820190508181036000830152620028498184620027c3565b905092915050565b600080fd5b600080fd5b6000601f19601f8301169050919050565b7f4e487b7100000000000000000000000000000000000000000000000000000000600052604160045260246000fd5b620028a6826200285b565b810181811067ffffffffffffffff82111715620028c857620028c76200286c565b5b80604052505050565b6000620028dd6200252e565b9050620028eb82826200289b565b919050565b600067ffffffffffffffff8211156200290e576200290d6200286c565b5b62002919826200285b565b9050602081019050919050565b82818337600083830152505050565b60006200294c6200294684620028f0565b620028d1565b9050828152602081018484840111156200296b576200296a62002856565b5b6200297884828562002926565b509392505050565b600082601f83011262002998576200299762002851565b5b8135620029aa84826020860162002935565b91505092915050565b600060208284031215620029cc57620029cb62002538565b5b600082013567ffffffffffffffff811115620029ed57620029ec6200253d565b5b620029fb8482850162002980565b91505092915050565b600080fd5b6004811062002a1757600080fd5b50565b60008135905062002a2b8162002a09565b92915050565b62002a3c81620026f2565b811462002a4857600080fd5b50565b60008135905062002a5c8162002a31565b92915050565b62002a6d816200270d565b811462002a7957600080fd5b50565b60008135905062002a8d8162002a62565b92915050565b600060a0828403121562002aac5762002aab62002a04565b5b62002ab860a0620028d1565b9050600062002aca8482850162002a1a565b600083015250602062002ae08482850162002590565b602083015250604062002af68482850162002590565b604083015250606062002b0c8482850162002a4b565b606083015250608062002b228482850162002a7c565b60808301525092915050565b600080600060e0848603121562002b4a5762002b4962002538565b5b600062002b5a8682870162002590565b935050602062002b6d8682870162002a93565b92505060c062002b808682870162002a4b565b9150509250925092565b600081519050919050565b600082825260208201905092915050565b6000819050602082019050919050565b600062002bc48383620026e1565b60208301905092915050565b6000602082019050919050565b600062002bea8262002b8a565b62002bf6818562002b95565b935062002c038362002ba6565b8060005b8381101562002c3a57815162002c1e888262002bb6565b975062002c2b8362002bd0565b92505060018101905062002c07565b5085935050505092915050565b6000602082019050818103600083015262002c63818462002bdd565b905092915050565b6000819050919050565b62002c808162002c6b565b811462002c8c57600080fd5b50565b60008135905062002ca08162002c75565b92915050565b600080600080600060a0868803121562002cc55762002cc462002538565b5b600062002cd58882890162002590565b955050602062002ce88882890162002590565b945050604062002cfb8882890162002a4b565b935050606062002d0e8882890162002590565b925050608062002d218882890162002c8f565b9150509295509295909350565b62002d39816200270d565b82525050565b600060208201905062002d56600083018462002d2e565b92915050565b600081519050919050565b600082825260208201905092915050565b6000819050602082019050919050565b60808201600082015162002da06000850182620026e1565b50602082015162002db56020850182620026e1565b50604082015162002dca6040850182620026e1565b50606082015162002ddf6060850182620026e1565b50505050565b600062002df3838362002d88565b60808301905092915050565b6000602082019050919050565b600062002e198262002d5c565b62002e25818562002d67565b935062002e328362002d78565b8060005b8381101562002e6957815162002e4d888262002de5565b975062002e5a8362002dff565b92505060018101905062002e36565b5085935050505092915050565b6000602082019050818103600083015262002e92818462002e0c565b905092915050565b6000806040838503121562002eb45762002eb362002538565b5b600062002ec48582860162002590565b925050602062002ed78582860162002590565b9150509250929050565b600082825260208201905092915050565b7f436f6e74726174746f206e6f6e206175746f72697a7a61746f20706572206e6560008201527f67617265207065726d6573736900000000000000000000000000000000000000602082015250565b600062002f50602d8362002ee1565b915062002f5d8262002ef2565b604082019050919050565b6000602082019050818103600083015262002f838162002f41565b9050919050565b60008160601b9050919050565b600062002fa48262002f8a565b9050919050565b600062002fb88262002f97565b9050919050565b62002fd462002fce8262002562565b62002fab565b82525050565b600062002fe8828662002fbf565b60148201915062002ffa828562002fbf565b6014820191506200300c828462002fbf565b601482019150819050949350505050565b7f4e487b7100000000000000000000000000000000000000000000000000000000600052603260045260246000fd5b7f5065726d6573736f206e656761746f202873656e646572416464726573732c2060008201527f636f6e7472616374416464726573732c206f776e657229000000000000000000602082015250565b6000620030aa60378362002ee1565b9150620030b7826200304c565b604082019050919050565b620030cd8162002562565b82525050565b60006080820190508181036000830152620030ee816200309b565b9050620030ff6020830186620030c2565b6200310e6040830185620030c2565b6200311d6060830184620030c2565b949350505050565b7f436f6e74726174746f206e6f6e206175746f72697a7a61746f2070657220726560008201527f6769737472617265207269636869657374650000000000000000000000000000602082015250565b60006200318360328362002ee1565b9150620031908262003125565b604082019050919050565b60006020820190508181036000830152620031b68162003174565b9050919050565b7f526963686965737461207269636576757461202873656e64657241646472657360008201527f732c20636f6e7472616374416464726573732c206f776e657229000000000000602082015250565b60006200321b603a8362002ee1565b91506200322882620031bd565b604082019050919050565b600060808201905081810360008301526200324e816200320c565b90506200325f6020830186620030c2565b6200326e6040830185620030c2565b6200327d6060830184620030c2565b949350505050565b7f41727469737461206e6f6e2070726573656e746520696e206c69737461000000600082015250565b6000620032bd601d8362002ee1565b9150620032ca8262003285565b602082019050919050565b60006020820190508181036000830152620032f081620032ae565b9050919050565b7f4e6f6e20706f73736962696c652063726561726520756e20636f6e747261747460008201527f6f2c206c696d697465207261676769756e746f00000000000000000000000000602082015250565b60006200335560338362002ee1565b91506200336282620032f7565b604082019050919050565b60006020820190508181036000830152620033888162003346565b9050919050565b600081519050919050565b600081905092915050565b60005b83811015620033c5578082015181840152602081019050620033a8565b60008484015250505050565b6000620033de826200338f565b620033ea81856200339a565b9350620033fc818560208601620033a5565b80840191505092915050565b6000620034168284620033d1565b915081905092915050565b6200342c81620026f2565b82525050565b6000606082019050620034496000830186620030c2565b62003458602083018562003421565b620034676040830184620030c2565b949350505050565b7f436f6e74726174746f20707562626c696361746f3a20286f776e65722c20636f60008201527f6e74726163744164647265737329000000000000000000000000000000000000602082015250565b6000620034cd602e8362002ee1565b9150620034da826200346f565b604082019050919050565b600060408201905081810360008301526200350081620034be565b9050620035116020830184620030c2565b92915050565b7f436f6e74726174746f206e6f6e206175746f72697a7a61746f2070657220616760008201527f6769756e67657265207269636869657374652072696365767574650000000000602082015250565b600062003575603b8362002ee1565b9150620035828262003517565b604082019050919050565b60006020820190508181036000830152620035a88162003566565b9050919050565b7f4e487b7100000000000000000000000000000000000000000000000000000000600052601160045260246000fd5b6000620035eb8262002c6b565b9150620035f88362002c6b565b9250828203905081811115620036135762003612620035af565b5b92915050565b7f436f6e74726174746f206e6f6e206175746f72697a7a61746f2070657220637260008201527f6561726520756e206669676c696f000000000000000000000000000000000000602082015250565b600062003677602e8362002ee1565b9150620036848262003619565b604082019050919050565b60006020820190508181036000830152620036aa8162003668565b9050919050565b620036bc8162002c6b565b82525050565b600060a082019050620036d96000830188620030c2565b620036e86020830187620030c2565b620036f7604083018662003421565b620037066060830185620030c2565b620037156080830184620036b1565b9695505050505050565b7f436f6e74726174746f206669676c696f20707562626c696361746f3a2028636860008201527f696c644f776e65722c206368696c64416464726573732c20706172656e74417260208201527f746973742c20706172656e74436f6e7472616374290000000000000000000000604082015250565b6000620037a360558362002ee1565b9150620037b0826200371f565b606082019050919050565b60006080820190508181036000830152620037d68162003794565b9050620037e76020830186620030c2565b620037f66040830185620030c2565b620038056060830184620030c2565b949350505050565b7f436f6e74726174746f206e6f6e206175746f72697a7a61746f2070657220636f60008201527f6e636564657265207065726d6573736900000000000000000000000000000000602082015250565b60006200386b60308362002ee1565b915062003878826200380d565b604082019050919050565b600060208201905081810360008301526200389e816200385c565b9050919050565b7f5065726d6573736f20636f6e636573736f202873656e6465724164647265737360008201527f2c20636f6e7472616374416464726573732c206f776e65722900000000000000602082015250565b60006200390360398362002ee1565b91506200391082620038a5565b604082019050919050565b600060808201905081810360008301526200393681620038f4565b9050620039476020830186620030c2565b620039566040830185620030c2565b620039656060830184620030c2565b949350505050565b7f417274697374612070726573656e746520696e206c6973746100000000000000600082015250565b6000620039a560198362002ee1565b9150620039b2826200396d565b602082019050919050565b60006020820190508181036000830152620039d88162003996565b9050919050565b7f417274697374612061676769756e746f20696e206c697374613a20286172746960008201527f7374416464726573732900000000000000000000000000000000000000000000602082015250565b600062003a3d602a8362002ee1565b915062003a4a82620039df565b604082019050919050565b6000602082019050818103600083015262003a708162003a2e565b9050919050565b7f436f6e74726174746f206e6f6e206175746f72697a7a61746f2070657220616760008201527f6769756e676572652072696368696573746520696e7669617465000000000000602082015250565b600062003ad5603a8362002ee1565b915062003ae28262003a77565b604082019050919050565b6000602082019050818103600083015262003b088162003ac6565b9050919050565b7f436f6e74726174746f206e6f6e206175746f72697a7a61746f2070657220636f60008201527f6e67656c61726520636f6e747261747469000000000000000000000000000000602082015250565b600062003b6d60318362002ee1565b915062003b7a8262003b0f565b604082019050919050565b6000602082019050818103600083015262003ba08162003b5e565b9050919050565b7f436f6e74726174746f20636f6e67656c61746f20286f776e65722c20636f6e7460008201527f7261637441646472657373290000000000000000000000000000000000000000602082015250565b600062003c05602c8362002ee1565b915062003c128262003ba7565b604082019050919050565b6000604082019050818103600083015262003c388162003bf6565b905062003c496020830184620030c2565b9291505056fe60806040523480156200001157600080fd5b50604051620017663803806200176683398181016040528101906200003791906200021c565b80600560006101000a81548173ffffffffffffffffffffffffffffffffffffffff021916908373ffffffffffffffffffffffffffffffffffffffff160217905550826000806101000a81548173ffffffffffffffffffffffffffffffffffffffff021916908373ffffffffffffffffffffffffffffffffffffffff16021790555082600160000160006101000a81548173ffffffffffffffffffffffffffffffffffffffff021916908373ffffffffffffffffffffffffffffffffffffffff16021790555081600180018190555030600160020160006101000a81548173ffffffffffffffffffffffffffffffffffffffff021916908373ffffffffffffffffffffffffffffffffffffffff160217905550426001600301819055506000600560146101000a81548160ff02191690831515021790555050505062000278565b600080fd5b600073ffffffffffffffffffffffffffffffffffffffff82169050919050565b6000620001a9826200017c565b9050919050565b620001bb816200019c565b8114620001c757600080fd5b50565b600081519050620001db81620001b0565b92915050565b6000819050919050565b620001f681620001e1565b81146200020257600080fd5b50565b6000815190506200021681620001eb565b92915050565b60008060006060848603121562000238576200023762000177565b5b60006200024886828701620001ca565b93505060206200025b8682870162000205565b92505060406200026e86828701620001ca565b9150509250925092565b6114de80620002886000396000f3fe608060405234801561001057600080fd5b506004361061004c5760003560e01c806311c7c7e914610051578063338cdca11461006d578063893d20e814610077578063a584a9b514610095575b600080fd5b61006b60048036038101906100669190610dea565b61009f565b005b610075610593565b005b61007f610c02565b60405161008c9190610e39565b60405180910390f35b61009d610c2b565b005b60008054906101000a900473ffffffffffffffffffffffffffffffffffffffff1673ffffffffffffffffffffffffffffffffffffffff163373ffffffffffffffffffffffffffffffffffffffff16146100f757600080fd5b6001600381111561010b5761010a610e54565b5b600660008373ffffffffffffffffffffffffffffffffffffffff1673ffffffffffffffffffffffffffffffffffffffff16815260200190815260200160002060000160009054906101000a900460ff16600381111561016d5761016c610e54565b5b146101ad576040517f08c379a00000000000000000000000000000000000000000000000000000000081526004016101a490610f06565b60405180910390fd5b81156103f1576002600660008373ffffffffffffffffffffffffffffffffffffffff1673ffffffffffffffffffffffffffffffffffffffff16815260200190815260200160002060000160006101000a81548160ff0219169083600381111561021957610218610e54565b5b021790555081600660008373ffffffffffffffffffffffffffffffffffffffff1673ffffffffffffffffffffffffffffffffffffffff16815260200190815260200160002060030160006101000a81548160ff021916908315150217905550600560009054906101000a900473ffffffffffffffffffffffffffffffffffffffff1673ffffffffffffffffffffffffffffffffffffffff16633ff9e83f823060008054906101000a900473ffffffffffffffffffffffffffffffffffffffff166040518463ffffffff1660e01b81526004016102f793929190610f26565b600060405180830381600087803b15801561031157600080fd5b505af1158015610325573d6000803e3d6000fd5b50505050600560009054906101000a900473ffffffffffffffffffffffffffffffffffffffff1673ffffffffffffffffffffffffffffffffffffffff16633f77dd9d82336001800154600160020160009054906101000a900473ffffffffffffffffffffffffffffffffffffffff166001600301546040518663ffffffff1660e01b81526004016103ba959493929190610f8f565b600060405180830381600087803b1580156103d457600080fd5b505af11580156103e8573d6000803e3d6000fd5b5050505061050e565b6003600660008373ffffffffffffffffffffffffffffffffffffffff1673ffffffffffffffffffffffffffffffffffffffff16815260200190815260200160002060000160006101000a81548160ff0219169083600381111561045757610456610e54565b5b0217905550600560009054906101000a900473ffffffffffffffffffffffffffffffffffffffff1673ffffffffffffffffffffffffffffffffffffffff16630609b7fd823060008054906101000a900473ffffffffffffffffffffffffffffffffffffffff166040518463ffffffff1660e01b81526004016104db93929190610f26565b600060405180830381600087803b1580156104f557600080fd5b505af1158015610509573d6000803e3d6000fd5b505050505b7ff7011a0f62dea6ba56883a9f1b74a4d2222d9c1c31fb61f8e911ce64fac07c09813060008054906101000a900473ffffffffffffffffffffffffffffffffffffffff166040516020016105649392919061102a565b6040516020818303038152906040528051906020012060405161058791906110b3565b60405180910390a15050565b60008054906101000a900473ffffffffffffffffffffffffffffffffffffffff1673ffffffffffffffffffffffffffffffffffffffff163373ffffffffffffffffffffffffffffffffffffffff16036105eb57600080fd5b600060038111156105ff576105fe610e54565b5b600660003373ffffffffffffffffffffffffffffffffffffffff1673ffffffffffffffffffffffffffffffffffffffff16815260200190815260200160002060000160009054906101000a900460ff16600381111561066157610660610e54565b5b146106a1576040517f08c379a000000000000000000000000000000000000000000000000000000000815260040161069890611153565b60405180910390fd5b60001515600560149054906101000a900460ff161515146106f7576040517f08c379a00000000000000000000000000000000000000000000000000000000081526004016106ee906111bf565b60405180910390fd5b6001600660003373ffffffffffffffffffffffffffffffffffffffff1673ffffffffffffffffffffffffffffffffffffffff16815260200190815260200160002060000160006101000a81548160ff0219169083600381111561075d5761075c610e54565b5b021790555033600660003373ffffffffffffffffffffffffffffffffffffffff1673ffffffffffffffffffffffffffffffffffffffff16815260200190815260200160002060000160016101000a81548173ffffffffffffffffffffffffffffffffffffffff021916908373ffffffffffffffffffffffffffffffffffffffff16021790555030600660003373ffffffffffffffffffffffffffffffffffffffff1673ffffffffffffffffffffffffffffffffffffffff16815260200190815260200160002060010160006101000a81548173ffffffffffffffffffffffffffffffffffffffff021916908373ffffffffffffffffffffffffffffffffffffffff1602179055506001800154600660003373ffffffffffffffffffffffffffffffffffffffff1673ffffffffffffffffffffffffffffffffffffffff168152602001908152602001600020600201819055506000600660003373ffffffffffffffffffffffffffffffffffffffff1673ffffffffffffffffffffffffffffffffffffffff16815260200190815260200160002060030160006101000a81548160ff0219169083151502179055506000333060008054906101000a900473ffffffffffffffffffffffffffffffffffffffff166040516020016109419392919061102a565b604051602081830303815290604052805190602001209050600560009054906101000a900473ffffffffffffffffffffffffffffffffffffffff1673ffffffffffffffffffffffffffffffffffffffff166319790a7e60008054906101000a900473ffffffffffffffffffffffffffffffffffffffff16600660003373ffffffffffffffffffffffffffffffffffffffff1673ffffffffffffffffffffffffffffffffffffffff168152602001908152602001600020846040518463ffffffff1660e01b8152600401610a16939291906113ce565b600060405180830381600087803b158015610a3057600080fd5b505af1158015610a44573d6000803e3d6000fd5b50505050600560009054906101000a900473ffffffffffffffffffffffffffffffffffffffff1673ffffffffffffffffffffffffffffffffffffffff16639204fd3c33600660003373ffffffffffffffffffffffffffffffffffffffff1673ffffffffffffffffffffffffffffffffffffffff168152602001908152602001600020846040518463ffffffff1660e01b8152600401610ae5939291906113ce565b600060405180830381600087803b158015610aff57600080fd5b505af1158015610b13573d6000803e3d6000fd5b50505050600560009054906101000a900473ffffffffffffffffffffffffffffffffffffffff1673ffffffffffffffffffffffffffffffffffffffff1663143914e8333060008054906101000a900473ffffffffffffffffffffffffffffffffffffffff166040518463ffffffff1660e01b8152600401610b9693929190610f26565b600060405180830381600087803b158015610bb057600080fd5b505af1158015610bc4573d6000803e3d6000fd5b505050507f9946568b7b40c84fb1a266ae041f129cc8ff176c698f7ee513f0f51486a6eafb81604051610bf79190611451565b60405180910390a150565b60008060009054906101000a900473ffffffffffffffffffffffffffffffffffffffff16905090565b60008054906101000a900473ffffffffffffffffffffffffffffffffffffffff1673ffffffffffffffffffffffffffffffffffffffff163373ffffffffffffffffffffffffffffffffffffffff1614610c8357600080fd5b60001515600560149054906101000a900460ff16151514610ca357600080fd5b6001600560146101000a81548160ff021916908315150217905550600560009054906101000a900473ffffffffffffffffffffffffffffffffffffffff1673ffffffffffffffffffffffffffffffffffffffff166396aebbad30336040518363ffffffff1660e01b8152600401610d1b92919061147f565b600060405180830381600087803b158015610d3557600080fd5b505af1158015610d49573d6000803e3d6000fd5b50505050565b600080fd5b60008115159050919050565b610d6981610d54565b8114610d7457600080fd5b50565b600081359050610d8681610d60565b92915050565b600073ffffffffffffffffffffffffffffffffffffffff82169050919050565b6000610db782610d8c565b9050919050565b610dc781610dac565b8114610dd257600080fd5b50565b600081359050610de481610dbe565b92915050565b60008060408385031215610e0157610e00610d4f565b5b6000610e0f85828601610d77565b9250506020610e2085828601610dd5565b9150509250929050565b610e3381610dac565b82525050565b6000602082019050610e4e6000830184610e2a565b92915050565b7f4e487b7100000000000000000000000000000000000000000000000000000000600052602160045260246000fd5b600082825260208201905092915050565b7f526963686965737461206e6f6e20696e2061747465736120646920726973706f60008201527f7374610000000000000000000000000000000000000000000000000000000000602082015250565b6000610ef0602383610e83565b9150610efb82610e94565b604082019050919050565b60006020820190508181036000830152610f1f81610ee3565b9050919050565b6000606082019050610f3b6000830186610e2a565b610f486020830185610e2a565b610f556040830184610e2a565b949350505050565b6000819050919050565b610f7081610f5d565b82525050565b6000819050919050565b610f8981610f76565b82525050565b600060a082019050610fa46000830188610e2a565b610fb16020830187610e2a565b610fbe6040830186610f67565b610fcb6060830185610e2a565b610fd86080830184610f80565b9695505050505050565b60008160601b9050919050565b6000610ffa82610fe2565b9050919050565b600061100c82610fef565b9050919050565b61102461101f82610dac565b611001565b82525050565b60006110368286611013565b6014820191506110468285611013565b6014820191506110568284611013565b601482019150819050949350505050565b7f526973706f73746120696e76696174613a200000000000000000000000000000600082015250565b600061109d601283610e83565b91506110a882611067565b602082019050919050565b600060408201905081810360008301526110cc81611090565b90506110db6020830184610f67565b92915050565b7f416d6d6573736120756e6120736f6c612072696368696573746120706572207560008201527f74656e7465000000000000000000000000000000000000000000000000000000602082015250565b600061113d602583610e83565b9150611148826110e1565b604082019050919050565b6000602082019050818103600083015261116c81611130565b9050919050565b7f436f6e74726174746f20636f6e67656c61746f00000000000000000000000000600082015250565b60006111a9601383610e83565b91506111b482611173565b602082019050919050565b600060208201905081810360008301526111d88161119c565b9050919050565b60008160001c9050919050565b600060ff82169050919050565b600061120c611207836111df565b6111ec565b9050919050565b6004811061122457611223610e54565b5b50565b600081905061123582611213565b919050565b600061124582611227565b9050919050565b6112558161123a565b82525050565b60008160081c9050919050565b600073ffffffffffffffffffffffffffffffffffffffff82169050919050565b600061129b6112968361125b565b611268565b9050919050565b6112ab81610dac565b82525050565b60006112c46112bf836111df565b611268565b9050919050565b6000819050919050565b60006112e86112e3836111df565b6112cb565b9050919050565b6112f881610f5d565b82525050565b600060ff82169050919050565b600061131e611319836111df565b6112fe565b9050919050565b61132e81610d54565b82525050565b60a082016000808301549050611349816111f9565b611356600086018261124c565b5061136081611288565b61136d60208601826112a2565b506001830154905061137e816112b1565b61138b60408601826112a2565b506002830154905061139c816112d5565b6113a960608601826112ef565b50600383015490506113ba8161130b565b6113c76080860182611325565b5050505050565b600060e0820190506113e36000830186610e2a565b6113f06020830185611334565b6113fd60c0830184610f67565b949350505050565b7f52696368696573746120726567697374726174613a2000000000000000000000600082015250565b600061143b601683610e83565b915061144682611405565b602082019050919050565b6000604082019050818103600083015261146a8161142e565b90506114796020830184610f67565b92915050565b60006040820190506114946000830185610e2a565b6114a16020830184610e2a565b939250505056fea2646970667358221220b7942d1f07596d096d49e80e046336b84385d3f2d7358acf10937c4fde0e890164736f6c63430008120033608060405234801561001057600080fd5b506040516105373803806105378339818101604052810190610032919061028e565b846000806101000a81548173ffffffffffffffffffffffffffffffffffffffff021916908373ffffffffffffffffffffffffffffffffffffffff16021790555084600160000160006101000a81548173ffffffffffffffffffffffffffffffffffffffff021916908373ffffffffffffffffffffffffffffffffffffffff16021790555082600180018190555030600160020160006101000a81548173ffffffffffffffffffffffffffffffffffffffff021916908373ffffffffffffffffffffffffffffffffffffffff1602179055504260016003018190555083600160040160000160006101000a81548173ffffffffffffffffffffffffffffffffffffffff021916908373ffffffffffffffffffffffffffffffffffffffff1602179055508260016004016001018190555081600160040160020160006101000a81548173ffffffffffffffffffffffffffffffffffffffff021916908373ffffffffffffffffffffffffffffffffffffffff160217905550806001600401600301819055505050505050610309565b600080fd5b600073ffffffffffffffffffffffffffffffffffffffff82169050919050565b60006101ef826101c4565b9050919050565b6101ff816101e4565b811461020a57600080fd5b50565b60008151905061021c816101f6565b92915050565b6000819050919050565b61023581610222565b811461024057600080fd5b50565b6000815190506102528161022c565b92915050565b6000819050919050565b61026b81610258565b811461027657600080fd5b50565b60008151905061028881610262565b92915050565b600080600080600060a086880312156102aa576102a96101bf565b5b60006102b88882890161020d565b95505060206102c98882890161020d565b94505060406102da88828901610243565b93505060606102eb8882890161020d565b92505060806102fc88828901610279565b9150509295509295909350565b61021f806103186000396000f3fe608060405234801561001057600080fd5b506004361061002b5760003560e01c806362875b6d14610030575b600080fd5b61004a60048036038101906100459190610122565b61004c565b005b60008054906101000a900473ffffffffffffffffffffffffffffffffffffffff1673ffffffffffffffffffffffffffffffffffffffff163373ffffffffffffffffffffffffffffffffffffffff16146100a457600080fd5b8060018001819055507f5cceeacd6ab6f860214b6b178fc3923c5078ad8ded9ed9e4bbf1e5d4399bf3ab816040516100dc91906101bb565b60405180910390a150565b600080fd5b6000819050919050565b6100ff816100ec565b811461010a57600080fd5b50565b60008135905061011c816100f6565b92915050565b600060208284031215610138576101376100e7565b5b60006101468482850161010d565b91505092915050565b600082825260208201905092915050565b7f4950465368617368206d6f646966696361746f20284950465348617368290000600082015250565b6000610196601e8361014f565b91506101a182610160565b602082019050919050565b6101b5816100ec565b82525050565b600060408201905081810360008301526101d481610189565b90506101e360208301846101ac565b9291505056fea2646970667358221220004faa1abbea2a5b7a1f31db254bf11ff8d3d9c03086979ec40a870072b2292464736f6c63430008120033a26469706673582212207577dd5fda33ee53c920815b7e2076006e7e77578be8a49564fedc2f338f1da564736f6c63430008120033",
  "immutableReferences": {},
  "source": "// SPDX-License-Identifier: MIT \npragma solidity ^0.8.0;\n\nuint8 constant MAX_LENGTH = 10;   // massimo numero di contratti pubblicabili e figli ottenibili\n\nenum artistState {NoReq, ReqInviata, ReqAccettata, ReqNegata}    // stati di gestione delle richieste \n\nstruct ArtistReq {\n    artistState state;  // stato della richiesta, pu asssumere uno dei valori preimpostati\n    address EA; // eth Address sender  \n    address thisContract;\n    bytes32 hash;   // hash dell' econtent a cui ha fatto richiesta\n    bool result;    // true se l'artista ha eseguito una richiesta che  stata accettata\n}\n\nstruct Child {\n    address childOwner; // proprietario del contratto figlio\n    address childAddress;   // indirizzo del contratto figlio\n    address parentArtist;   // artista proprietario del contratto padre\n    address parentContract; // indirizzo del contratto padre\n}\n\ncontract Factory {\n    address[] private contracts;    // lista di tutti i contratti pubblicati\n    address[] private freezedContracts;   // lista di tutti i contratti bloccati\n\n    mapping (address => bool) private isArtist;   // mappa degli artisti registrati - true se sono registrati - false se non lo sono\n    mapping (address => address[]) private artistContracts;    // mappa di tutti i contratti pubblicati da un artista\n    mapping (address => address[]) private artistFreezedContracts;  // mappa di tutti i contratti congelati appartenti ad un artista\n    mapping (address => Child[]) private childContractsObtained;   // mappa dei contratti figli che un utente ha ottenuto\n    mapping (address => Child[]) private childContractsGiven;    // mappa dei contratti figli che un artista ha concesso\n    mapping (address => ArtistReq[]) private artistRequestsReceived; // mappa delle richieste ricevute da un artista\n    mapping (address => ArtistReq[]) private artistRequestsSent; // mappa delle richieste inviate da un artista\n    mapping (bytes32 => uint) private indexArtistRequestsReceived;    // mappa che indicizza l'hash univoco di una richiesta con un indice\n    mapping (bytes32 => uint) private indexArtistRequestsSent;    // mappa che indicizza l'hash univoco di una richiesta con un indice\n    mapping (address => bool) private authorizedContracts; // appatura degli indirizzi autorizzati\n\n\n    // eventi factory contract\n    event ArtistAdded(string info, address indexed artist);\n    event DeployedContracts(string info, address indexed owner, address contractAddress);\n    event ChildCreated(string info, address indexed childOwner, address childAddress, address parentArtist, address parentContract);\n\n    // eventi content contract\n    event RegisteredReq(string info, address sender, address contractAddress, address owner);\n    event GrantedPerm(string info, address sender, address contractAddress, address owner);\n    event DeniedPerm(string info, address sender, address contractAddress, address owner);\n    event FreezedContract(string info, address indexed owner, address contractAddress);\n\n    // esegue il deploy di uno smart contract associandolo all'artista che ha chiamato il metodo\n    function createContract(string memory IPFSHash) public {\n        require(isArtist[msg.sender], \"Artista non presente in lista\");    // solo artisti registrati possono eseguire il deploy di contratti\n        require(artistContracts[msg.sender].length < MAX_LENGTH, \"Non possibile creare un contratto, limite raggiunto\"); // limito la quantit di contratti possedibili da un artista\n\n        address newContract = address(new Content(msg.sender, keccak256(abi.encodePacked(IPFSHash)), address(this)));    // creazione contratto con proprietario il chiamante del metodo e l'hash del video (Converto una stringa in hash)\n        artistContracts[msg.sender].push(newContract);    // aggiungo il contratto alla lista dei contratti posseduti dall'artista\n        contracts.push(newContract);    // aggiungo il contratto alla lista di tutti i contratti\n        authorizedContracts[newContract] = true;  // autorizzo il contratto a poter interagire con il factory\n        emit DeployedContracts(\"Contratto pubblicato: (owner, contractAddress)\", msg.sender, newContract);    // deploy del contratto completato\n    }\n\n    function createChildContract(address senderAddress, address parentArtist, bytes32 IPFShash, address parentContract, uint256 timestamp) external {\n        require(authorizedContracts[msg.sender], \"Contratto non autorizzato per creare un figlio\");    // solo contratti autorizzati possono creare contratti figli\n        ChildContent child = new ChildContent(senderAddress, parentArtist, IPFShash, parentContract, timestamp);   // creo il contratto figlio\n        childContractsObtained[senderAddress].push(Child({\n            childOwner: senderAddress,\n            childAddress: address(child),\n            parentArtist: parentArtist,\n            parentContract: parentContract\n        }));  // aggiunge l'indirizzo del figlio ottentuto alla mappa dell'utente\n        childContractsGiven[parentArtist].push(Child({\n            childOwner: senderAddress,\n            childAddress: address(child),\n            parentArtist: parentArtist,\n            parentContract: parentContract\n        }));  // aggiunge l'indirizzo del figlio concesso alla mappa del padre\n        emit ChildCreated(\"Contratto figlio pubblicato: (childOwner, childAddress, parentArtist, parentContract)\", senderAddress, address(child), parentArtist, parentContract); // contratto figlio creato\n    }\n\n    function registerArtist() public {  \n        require(!isArtist[msg.sender], \"Artista presente in lista\");    // per registrare un nuovo artista questo non pu essere gi registrato\n        \n        isArtist[msg.sender] = true; // imposto il valore dell'artista sulla mappa a true\n        emit ArtistAdded(\"Artista aggiunto in lista: (artistAddress)\", msg.sender); // artista aggiunto con successo\n    }\n\n    function getIsArtist(address user) public view returns (bool) {\n        return isArtist[user];\n    }\n\n    function getArtistContracts(address artist) public view returns (address[] memory) {\n        return artistContracts[artist];\n    }\n    \n    function getContracts() public view returns (address[] memory) {\n        return contracts;\n    }\n\n    function addArtistRequestsReceived(address artist, ArtistReq memory req, bytes32 requestKey) external {\n        require(authorizedContracts[msg.sender], \"Contratto non autorizzato per aggiungere richieste ricevute\");    // solo contratti autorizzati possono aggiungere richieste\n        artistRequestsReceived[artist].push(req);\n        indexArtistRequestsReceived[requestKey] = artistRequestsReceived[artist].length - 1;    // salvo l'indice della richiesta ricevuta\n    }\n\n    function getArtistRequestsReceived(address artist) public view returns (ArtistReq[] memory) {\n        return artistRequestsReceived[artist];\n    }\n\n    function addArtistRequestsSent(address artist, ArtistReq memory req, bytes32 requestKey) external {\n        require(authorizedContracts[msg.sender], \"Contratto non autorizzato per aggiungere richieste inviate\");    // solo contratti autorizzati possono aggiungere richieste\n        artistRequestsSent[artist].push(req);\n        indexArtistRequestsSent[requestKey] = artistRequestsSent[artist].length - 1;    // salvo l'indice della richiesta inviata\n    }\n\n    function getArtistRequestsSent(address artist) public view returns (ArtistReq[] memory) {\n        return artistRequestsSent[artist];\n    }\n\n    function getChildContractsObtained(address artist) public view returns (Child[] memory) {\n        return childContractsObtained[artist];\n    }\n\n    function getChildContractsGiven(address artist) public view returns (Child[] memory) {\n        return childContractsGiven[artist];\n    }\n\n    function RegisteredReqEvent(address artist, address contractAddress, address owner) external {\n        require(authorizedContracts[msg.sender], \"Contratto non autorizzato per registrare richieste\");    // solo contratti autorizzati possono registrare richieste\n        emit RegisteredReq(\"Richiesta ricevuta (senderAddress, contractAddress, owner)\", artist, contractAddress, owner);\n    }\n\n    function GrantedPermEvent(address artist, address contractAddress, address owner) external {\n        require(authorizedContracts[msg.sender], \"Contratto non autorizzato per concedere permessi\");    // solo contratti autorizzati possono concedere permessi\n        bytes32 requestKey = keccak256(abi.encodePacked(artist, contractAddress, owner));\n        artistRequestsReceived[owner][indexArtistRequestsReceived[requestKey]].result = true;    // aggiorno la richiesta ricevuta con l'esito positivo\n        artistRequestsReceived[owner][indexArtistRequestsReceived[requestKey]].state = artistState.ReqAccettata;    // aggiorno lo stato della richiesta ricevuta\n        artistRequestsSent[artist][indexArtistRequestsSent[requestKey]].result = true;    // aggiorno la richiesta inviata con l'esito positivo\n        artistRequestsSent[artist][indexArtistRequestsSent[requestKey]].state = artistState.ReqAccettata;    // aggiorno lo stato della richiesta inviata \n        emit GrantedPerm(\"Permesso concesso (senderAddress, contractAddress, owner)\", artist, contractAddress, owner);\n    }\n\n    function DeniedPermEvent(address artist, address contractAddress, address owner) external {\n        require(authorizedContracts[msg.sender], \"Contratto non autorizzato per negare permessi\");    // solo contratti autorizzati possono negare permessi\n        bytes32 requestKey = keccak256(abi.encodePacked(artist, contractAddress, owner));\n        artistRequestsReceived[owner][indexArtistRequestsReceived[requestKey]].state = artistState.ReqNegata;    // aggiorno la richiesta ricevuta con l'esito negativo\n        artistRequestsSent[artist][indexArtistRequestsSent[requestKey]].state = artistState.ReqNegata;    // aggiorno la richiesta inviata con l'esito negativo\n        emit DeniedPerm(\"Permesso negato (senderAddress, contractAddress, owner)\", artist, contractAddress, owner);\n    }\n\n    function addFreezedContracts(address contractAddress, address owner) external {\n        require(authorizedContracts[msg.sender], \"Contratto non autorizzato per congelare contratti\");    // solo contratti autorizzati possono congelare contratti\n        freezedContracts.push(contractAddress);\n        artistFreezedContracts[owner].push(contractAddress);\n        emit FreezedContract(\"Contratto congelato (owner, contractAddress)\", owner, contractAddress);\n    }\n\n    function getFreezedContracts() public view returns (address[] memory) {\n        return freezedContracts;\n    }\n\n    function getArtistFreezedContracts(address artist) public view returns (address[] memory) {\n        return artistFreezedContracts[artist];\n    }\n}\n\ncontract Content{\n    // il deploy di uno smart contract corrisponde con la pubblicazione di un video/immagine/canzone/...\n    // ogni SC si occupa di autenticare l'originalit del econtent e di gestire richieste eseguite da altri artisti/utenti di riutilizzare tale contenuto\n    address private _owner;  // proprietario dello SC\n    EContent private thisEContent;   // informazioni sul contenuto digitale\n    Factory private factory; // contratto factory che ha eseguito il deploy di questo SC\n    bool private freeze;    // determina il blocco del contratto, se vale true il contratto rifiuter tutte le richieste\n\n    struct EContent {\n        address owner;  // proprietario del econtent\n        bytes32 IPFS_Hash;    // IPFS hash del econtent\n        address SC_address;   // indirizzo SC associato all' econtent\n        uint256 timestamp;    // data pubblicazione\n    }\n\n    mapping (address => ArtistReq) private requests; // mappa che associa la richiesta ricevuta all'artista che l'ha fatta\n\n    event Request (string info, bytes32 requestHash);\n    event Reply (string info, bytes32 requestHash);\n\n    modifier onlyOwner(){\n        require(msg.sender == _owner);\n        _;\n    } \n\n    modifier notOwner(){\n        require(msg.sender != _owner);\n        _;\n    }\n\n    constructor(address sender, bytes32 IPFShash, address factoryAddress){\n        factory = Factory(factoryAddress);  // salvo l'istanza del contratto Factory\n        _owner = sender;    // il proprietario  colui che ha creato lo SC\n        thisEContent.owner = sender;\n        thisEContent.IPFS_Hash = IPFShash;\n        thisEContent.SC_address = address(this);\n        thisEContent.timestamp = block.timestamp;   // salvo l'istante temporale in cui viene creato il blocco\n        freeze = false; // blocco del contratto, all'inizio impostato a false\n    }\n\n    // richiesta permesso di riutilizzo di un EContent - il proprietario non pu fare richiesta per un suo contenuto\n    function request() public notOwner{\n        require(requests[msg.sender].state == artistState.NoReq, \"Ammessa una sola richiesta per utente\");    // un utente pu fare una sola richiesta per contenuto\n        require(freeze == false, \"Contratto congelato\");   // esegue solo le il contratto non  stato bloccato\n\n        requests[msg.sender].state = artistState.ReqInviata; // aggiorno lo stato della richiesta e ne salvo le informazioni\n        requests[msg.sender].EA = msg.sender; \n        requests[msg.sender].thisContract = address(this);\n        requests[msg.sender].hash = thisEContent.IPFS_Hash;\n        requests[msg.sender].result = false;\n\n        bytes32 requestKey = keccak256(abi.encodePacked(msg.sender, address(this), _owner));\n        factory.addArtistRequestsReceived(_owner, requests[msg.sender], requestKey);    // aggiungo la richiesta alla lista di quelle ricevute dal proprietario\n        factory.addArtistRequestsSent(msg.sender, requests[msg.sender], requestKey);    // aggiungo la richiesta alla lista di quelle inviate dall'artista\n        factory.RegisteredReqEvent(msg.sender, address(this), _owner); // comunico l'avvenuta registrazione della richiesta\n        emit Request(\"Richiesta registrata: \", requestKey);\n    }\n    \n    // il proprietario dello SC pu rispondere alle richieste, accettandole o rifiutandole - richiamabile sono dal proprietario\n    function reply(bool result, address senderAddress) public onlyOwner{\n        require(requests[senderAddress].state == artistState.ReqInviata, \"Richiesta non in attesa di risposta\");   // valuto solo richieste che necessitano di risposta\n        \n        if(result){ // richiesta accettata\n            requests[senderAddress].state = artistState.ReqAccettata;  // aggiorno lo stato della richiesta nella lista\n            requests[senderAddress].result = result;\n            factory.GrantedPermEvent(senderAddress, address(this), _owner); // comunico l'esito\n            factory.createChildContract(senderAddress, msg.sender, thisEContent.IPFS_Hash, thisEContent.SC_address, thisEContent.timestamp); // richiamo il metodo del contratto factory che crea il figlio\n        }\n        else {  // richiesta rifiutata\n            requests[senderAddress].state = artistState.ReqNegata;   // aggiorno lo stato della richiesta generale\n            factory.DeniedPermEvent(senderAddress, address(this), _owner); // comunico l'esito\n        }\n        emit Reply(\"Risposta inviata: \", keccak256(abi.encodePacked(senderAddress, address(this), _owner)));\n    }\n\n    function getOwner() public view returns (address) {\n        return _owner;\n    }\n\n    function freezeContract() public onlyOwner() {  // congela contratto - non potr ricevere nuove richieste\n        require(freeze == false);   // non posso congelare un contratto gi congelato\n        \n        freeze = true;\n        factory.addFreezedContracts(address(this), msg.sender);    // aggiungo il contratto alla lista di quelli bloccati\n    }\n}\n\ncontract ChildContent {\n    // il contratto figlio non pu ricevere ed elaborare richieste\n    address private _owner;  // proprietario dello SC\n    ChildEContent private childContent;  // informazioni del contratto figlio\n\n    struct ChildEContent {\n        address owner;  // proprietario del econtent\n        bytes32 IPFS_Hash;    // IPFS hash del econtent\n        address SC_address;   // indirizzo SC associato all' econtent\n        uint256 timestamp;    // data pubblicazione\n        Content.EContent parent_EC;    // informazioni del contratto genitore\n    }\n\n    modifier onlyOwner(){\n        require(msg.sender == _owner);\n        _;\n    }\n\n    event CangedIPFSHash(string info, bytes32 IPFShash);\n\n    constructor(address senderAddress, address parentArtist, bytes32 IPFShash, address parentContract, uint256 timestamp){\n        _owner = senderAddress; // il proprietario dello SC figlio  l'utente a cui  stata accettata la richiesta\n        childContent.owner = senderAddress; // il contenuto figlio  di propriet dell'artista che ha eseguito la richiesta, pu modificarlo\n        childContent.IPFS_Hash = IPFShash;  // inizializzo l'hash del video figlio uguale al padre, pot farne ci che vuole\n        childContent.SC_address = address(this);    // l'indirizzo del contratto figlio  l'indirizzo del contratto stesso\n        childContent.timestamp = block.timestamp;   // salvo l'istante temporale in cui viene creato il blocco\n        childContent.parent_EC.owner = parentArtist; // copio le informazioni dello SC padre \n        childContent.parent_EC.IPFS_Hash = IPFShash;\n        childContent.parent_EC.SC_address = parentContract;\n        childContent.parent_EC.timestamp = timestamp;\n    }\n\n    // il proprietario del contenuto figlio ha la possibilit di modificarlo e aggiornare l'hash\n    function setIPFSHash(bytes32 IPFSHash) public onlyOwner{\n        childContent.IPFS_Hash = IPFSHash;\n        emit CangedIPFSHash(\"IPFShash modificato (IPFSHash)\", IPFSHash);\n    }\n}",
  "sourcePath": "/home/cavallinux/Backup/Universit/ProgettoBlockchain/Progetto/truffle/contracts/SC.sol",
  "compiler": {
    "name": "solc",
    "version": "0.8.18+commit.87f61d96.Emscripten.clang"
  },
  "schemaVersion": "3.4.16",
  "updatedAt": "2024-10-06T11:12:03.198Z",
  "networkType": "ethereum",
  "devdoc": {
    "kind": "dev",
    "methods": {},
    "version": 1
  },
  "userdoc": {
    "kind": "user",
    "methods": {},
    "version": 1
  }
}